:020000040800F2
:100000000000012015390008792100087D21000831
:1000100081210008852100088921000800000000D6
:100020000000000000000000000000008D2100081A
:100030009121000800000000952100089921000886
:100040006139000861390008613900086139000828
:100050006139000861390008613900086139000818
:100060006139000861390008613900086139000808
:1000700061390008613900086139000861390008F8
:1000800061390008613900086139000861390008E8
:1000900059230008613900086139000861390008F6
:1000A00061390008613900086139000861390008C8
:1000B00061390008613900086139000861390008B8
:1000C00061390008613900086139000861390008A8
:1000D000613900089D2D0008E52D0008C12D00089C
:1000E0006139000861390008613900086139000888
:1000F0006139000861390008613900086139000878
:100100006139000861390008613900086139000867
:100110006139000861390008613900086139000857
:100120006139000861390008613900086139000847
:100130000348044B834202D0034B03B11847704776
:100140007C0000207C0000200000000005480649DB
:100150000B1AD90F01EBA301491002D0034B03B1D5
:10016000184770477C0000207C0000200000000041
:1001700010B5064C237843B9FFF7DAFF044B13B1EF
:100180000448AFF300800123237010BD7C000020E1
:10019000000000006439000808B5044B1BB1044995
:1001A0000448AFF30080BDE80840CFE7000000003E
:1001B000800000206439000880F0004002E000BFA9
:1001C00081F0004142001FBF5FEA410392EA030F42
:1001D0007FEA226C7FEA236C6AD04FEA1262D2EB8C
:1001E0001363C1BFD218414048404140B8BF5B4291
:1001F000192B88BF704710F0004F40F4000020F02A
:100200007F4018BF404211F0004F41F4000121F03F
:100210007F4118BF494292EA030F3FD0A2F1010289
:1002200041FA03FC10EB0C00C3F1200301FA03F1C7
:1002300000F0004302D5494260EB4000B0F5000FEA
:1002400013D3B0F1807F06D340084FEA310102F1A9
:100250000102FE2A51D2B1F1004F40EBC25008BF5B
:1002600020F0010040EA03007047490040EB000025
:10027000013A28BFB0F5000FEDD2B0FA80FCACF126
:10028000080CB2EB0C0200FA0CF0AABF00EBC25053
:1002900052421843BCBFD0401843704792F0000F41
:1002A00081F4000106BF80F400000132013BB5E794
:1002B0004FEA41037FEA226C18BF7FEA236C21D00A
:1002C00092EA030F04D092F0000F08BF084670476F
:1002D00090EA010F1CBF0020704712F07F4F04D13D
:1002E000400028BF40F00040704712F100723CBF50
:1002F00000F50000704700F0004343F0FE4040F47A
:10030000000070477FEA226216BF08467FEA236337
:100310000146420206BF5FEA412390EA010F40F422
:10032000800070474FF0000304E000BF10F000436E
:1003300048BF40425FEA000C08BF704743F0964355
:1003400001464FF000001CE050EA010208BF704770
:100350004FF000030AE000BF50EA010208BF7047F7
:1003600011F0004302D5404261EB41015FEA010C0C
:1003700002BF84460146002043F0B64308BFA3F104
:100380008053A3F50003BCFA8CF2083AA3EBC253E6
:1003900010DB01FA02FC634400FA02FCC2F1200205
:1003A000BCF1004F20FA02F243EB020008BF20F03C
:1003B0000100704702F1200201FA02FCC2F12002A2
:1003C00050EA4C0021FA02F243EB020008BF20EA97
:1003D000DC7070474FF0FF0C1CEAD0521EBF1CEAC5
:1003E000D15392EA0C0F93EA0C0F6FD01A4480EAB3
:1003F000010C400218BF5FEA41211ED04FF000639C
:1004000043EA501043EA5111A0FB01310CF00040C7
:10041000B1F5000F3EBF490041EAD3715B0040EAED
:10042000010062F17F02FD2A1DD8B3F1004F40EBBD
:10043000C25008BF20F00100704790F0000F0CF090
:10044000004C08BF49024CEA502040EA51207F3A54
:10045000C2BFD2F1FF0340EAC250704740F400002F
:100460004FF00003013A5DDC12F1190FDCBF00F020
:1004700000407047C2F10002410021FA02F1C2F1CE
:10048000200200FA02FC5FEA310040F1000053EA6A
:100490004C0308BF20EADC70704792F0000F00F0B8
:1004A000004C02BF400010F4000F013AF9D040EABE
:1004B0000C0093F0000F01F0004C02BF490011F452
:1004C000000F013BF9D041EA0C018FE70CEAD15350
:1004D00092EA0C0F18BF93EA0C0F0AD030F0004CD0
:1004E00018BF31F0004CD8D180EA010000F0004084
:1004F000704790F0000F17BF90F0004F084691F042
:10050000000F91F0004F14D092EA0C0F01D142027B
:100510000FD193EA0C0F03D14B0218BF084608D144
:1005200080EA010000F0004040F0FE4040F400008E
:10053000704740F0FE4040F4400070474FF0FF0C21
:100540001CEAD0521EBF1CEAD15392EA0C0F93EA68
:100550000C0F69D0A2EB030280EA010C49024FEABA
:10056000402037D04FF0805343EA111143EA101373
:100570000CF000408B4238BF5B0042F17D024FF42B
:10058000000C8B4224BF5B1A40EA0C00B3EB510F06
:1005900024BFA3EB510340EA5C00B3EB910F24BFEF
:1005A000A3EB910340EA9C00B3EBD10F24BFA3EB74
:1005B000D10340EADC001B0118BF5FEA1C1CE0D13C
:1005C000FD2A3FF650AF8B4240EBC25008BF20F0EF
:1005D000010070470CF0004C4CEA50207F32C2BF43
:1005E000D2F1FF0340EAC250704740F400004FF0E0
:1005F0000003013A37E792F0000F00F0004C02BF11
:10060000400010F4000F013AF9D040EA0C0093F0DA
:10061000000F01F0004C02BF490011F4000F013B34
:10062000F9D041EA0C0195E70CEAD15392EA0C0F9C
:1006300008D142027FF47DAF93EA0C0F7FF470AFD4
:10064000084676E793EA0C0F04D14B023FF44CAF17
:1006500008466EE730F0004C18BF31F0004CCAD1AC
:1006600030F000427FF45CAF31F000437FF43CAFE8
:100670005FE700BF4FF0FF3C06E000BF4FF0010C0A
:1006800002E000BF4FF0010C4DF804CD4FEA4002EC
:100690004FEA41037FEA226C18BF7FEA236C11D036
:1006A00001B052EA530C18BF90EA010F58BFB2EBE9
:1006B000030088BFC81738BF6FEAE17018BF40F069
:1006C000010070477FEA226C02D15FEA402C05D11D
:1006D0007FEA236CE4D15FEA412CE1D05DF8040BA2
:1006E000704700BF844608466146FFE70FB5FFF735
:1006F000C9FF002848BF10F1000F0FBD4DF808EDED
:10070000FFF7F4FF0CBF012000205DF808FB00BFDD
:100710004DF808EDFFF7EAFF34BF012000205DF837
:1007200008FB00BF4DF808EDFFF7E0FF94BF012084
:1007300000205DF808FB00BF4DF808EDFFF7D2FF81
:1007400094BF012000205DF808FB00BF4DF808EDC4
:10075000FFF7C8FF34BF012000205DF808FB00BF91
:100760004FEA4002B2F1FE4F0FD34FF09E03B3EBBE
:1007700012620DD94FEA002343F0004310F0004FFE
:1007800023FA02F018BF404270474FF00000704754
:1007900012F1610F01D1420205D110F0004008BFF3
:1007A0006FF0004070474FF000007047830730B58E
:1007B00048D0541E002A3FD00346CAB201E0013C93
:1007C0003AD303F8012B9D07F9D1032C2DD9CDB2D3
:1007D00045EA05250F2C45EA054536D9A4F1100256
:1007E00022F00F0C03F1200EE6444FEA121C03F135
:1007F000100242E9045542E9025510327245F8D11F
:100800000CF1010214F00C0F03EB021204F00F0CB8
:1008100013D0ACF1040323F003030433134442F870
:10082000045B9342FBD10CF003042CB1CAB21C440C
:1008300003F8012B9C42FBD130BD64461346002CCB
:10084000F4D1F9E703461446BFE71A46A446E0E7A9
:100850000EB410B5044683B008B183695BB106AB32
:100860002046059AA168019300F04AFD03B0BDE857
:10087000104003B0704700F055FBF0E70FB410B51F
:100880000A4B82B01C680CB1A3695BB105AB204672
:10089000049AA168019300F033FD02B0BDE8104056
:1008A00004B07047204600F03DFBEFE70000002059
:1008B00070B506460D46002830D0836963B384685E
:1008C0002C4B9C4234D02C4B9C423CD02B4B9C421A
:1008D00008BFF468A3891B072ED5236963B3297861
:1008E00039B932E023685A1C2260197015F8011FCB
:1008F00059B3A368013B002BA360F3DAA2699342CA
:1009000001DB0A29EED12246304600F041F80130E1
:10091000ECD14FF0FF3070BD00F004FBB369B46858
:10092000002BCDD1304600F0FDFA124B9C42CAD1CB
:100930007468A3891B07D0D42146304600F08AF89A
:100940000028CCD0E5E7B468C4E7A368013B002BDE
:10095000A36008DA22460A21304600F019F8013077
:10096000D7D00A2070BD0A2223681046591C216086
:100970001A7070BDC0390008A0390008803900081D
:10098000024B01461868FFF793BF00BF000000202C
:10099000F8B506460D46144608B1836943B3254BA6
:1009A0009C422AD0244B9C4229D0244B9C4208BF15
:1009B000F468A269A389A2601A0722D5236903B348
:1009C00022686169D31AEDB299422F4629DD0133BD
:1009D000A1680139A160511C2160157062699A42B9
:1009E00016D0A389DB0701D50A2D11D03846F8BDF2
:1009F00000F098FA0F4B9C42D4D17468D9E7B468E0
:100A0000D7E72146304600F025F838B92369D7E703
:100A10002146304600F024F90028E7D04FF0FF3798
:100A2000E4E72146304600F01BF90028F6D1012307
:100A30002268CDE7C0390008A039000880390008D5
:100A400003460A46024908681946FFF7A1BF00BFDE
:100A5000000000203C4B70B51D6806460C460DB1E9
:100A6000AB69E3B1394B9C421FD0394B9C424DD00E
:100A7000384B9C4208BFEC68B4F90C3018079AB2A6
:100A800019D5216911B312F001002FD0002560693A
:100A9000A5604042A06100292ED0002070BD2846EC
:100AA00000F040FA294B9C42DFD16C68B4F90C305D
:100AB00018079AB2E5D4D1063ED5520728D4216949
:100AC00043F00803A3819AB20029DCD102F420701C
:100AD000B0F5007FD7D02146304600F087FAB4F950
:100AE0000C3021699AB212F00100CFD1950758BF9E
:100AF0006069A0600029D0D1120658BF0846CDD544
:100B000043F040034FF0FF30A38170BDAC68B3E702
:100B1000616B51B104F14402914204D0304600F0BF
:100B2000F3FAB4F90C30002262630022216923F049
:100B30002403C4E90012C3E7092243F040033260F2
:100B40004FF0FF30A38170BD00000020C0390008C5
:100B5000A039000880390008F8B58B890C461907C0
:100B600007463BD46268002A55DDE66A002E50D065
:100B700000223D683A6013F4805250D10123384678
:100B8000216AB047421C5CD0A389E66A5B0705D5A1
:100B90006368C01A636B0BB1236CC01A0246216AEA
:100BA00000233846B047411C3BD13B68002B38D06E
:100BB0001D2B01D0162B4BD100232269C4E9002341
:100BC000616B3D6029B304F14403994202D0384679
:100BD00000F09AFA002318466363F8BD2669C6B18F
:100BE0009A0718BF0023256808BF63692660AD1BFC
:100BF000A3600CE02B463246D4F828C03846216A60
:100C0000E047B0F1000CA5EB0C05664412DD002DA9
:100C1000F0DC0020F8BD226C002AA6DCF9E7606D4C
:100C2000B4E70022236962602360A389DB04C7D58F
:100C30006065C5E7A3894FF0FF3043F04003A3810F
:100C4000F8BD3B68002B9FD01D2B06D0162B04D07F
:100C5000A38943F04003A381F8BD00203D60F8BDA7
:100C600038B50B69BBB10C46054608B18369B3B111
:100C70000D4B9C4211D00D4B9C4213D00C4B9C420F
:100C800008BFEC68B4F90C302BB121462846BDE80A
:100C90003840FFF761BF002038BD6C68F2E700F014
:100CA00041F9E5E7AC68EDE7C0390008A039000874
:100CB0008039000838B540B303690446E3B1174BE7
:100CC0001D680DB1AB69CBB1154B9C420FD0154BD4
:100CD0009C4221D0144B9C4208BFEC68B4F90C3004
:100CE00053B121462846BDE83840FFF735BF6C6850
:100CF000B4F90C30002BF4D1002038BD284600F0A8
:100D000011F9074B9C42E2D1F1E7084B08491868FA
:100D1000BDE8384000F046B9AC68DFE700000020CD
:100D2000C0390008A0390008803900087C39000863
:100D3000610C000800207047014900F033B900BF82
:100D4000610C000800207047682270B54D1E02FB40
:100D500005F50E4605F1740100F03CFA044640B179
:100D600000210C30C4E9016005F168022160FFF741
:100D70001DFD204670BD00BF274B2DE9F0411E68C8
:100D80000746B36953B34FF004084836D6E9013437
:100D9000013B04D51EE05A1C04F168041AD0B4F9D2
:100DA0000C50013B002DF6D11C4B08222946C4E90A
:100DB0000055C4E90253C4E904556566A56104F110
:100DC0005C00FFF7F3FCC4E90D55C4E91255204659
:100DD000BDE8F08135682DB12E46D7E7304600F0EA
:100DE0001FF8D0E74FF4D671384600F0F3F9044607
:100DF00068B1056029460546C0F804800C304FF400
:100E0000D072A060FFF7D2FC34602E46BEE70C2300
:100E100030603B60DBE700BF7C3900080100FFFF6A
:100E20000023334A2DE9F0471268C0E9123390429B
:100E3000036508BF01232F4908BF8361816205460E
:100E4000FFF79AFF034628466B60FFF795FFA860FF
:100E500028460024FFF790FF04236E68DFF898A06F
:100E6000DFF89890DFF89880264FE8600822F3605A
:100E70002146C6E90044C6E904447466B460B4611E
:100E800006F15C00FFF792FC1F4BC6E9086AC6E951
:100E90000A983763AE680822F3602146C6E9004429
:100EA000C6E904447466B460B46106F15C00FFF7FF
:100EB0007DFC164BC6E9086AC6E90A983763EE68F6
:100EC0002146F3600822C6E90044C6E9044474667A
:100ED000B460B46106F15C00FFF768FC0123C6E969
:100EE000086AC6E90B87C6F82890AB61BDE8F087B1
:100EF0007C390008390D0008A9190008D11900082B
:100F0000111A0008311A000809000100120002003D
:100F1000024B0349186800F045B800BF7C3900084F
:100F2000610C0008836903B97AE77047704700BF16
:100F3000704700BF704700BF704700BF024B0349B6
:100F4000186800F00FB800BF00000020350D000841
:100F5000024B0349186800F005B800BF00000020EC
:100F6000450D00082DE9F0410026884600F14807AC
:100F7000D7E90154013D0ED4A389013D012B06D9C7
:100F8000B4F90E30013302D02046C04706436B1C33
:100F900004F16804F0D13F68002FE9D13046BDE884
:100FA000F08100BF2DE9F8434FF00009074688465D
:100FB00000F14806D6E90154013D10D4A389013D52
:100FC000012B08D9B4F90E30013304D0214638463C
:100FD000C04749EA00096B1C04F16804EED1366889
:100FE000002EE7D14846BDE8F88300BFF0B58B89F5
:100FF0000C46990797B007D5012204F14703C4E9CD
:101000000432236017B0F0BDB4F90E100546002974
:101010002DDB6A4600F038FD002827DB019E4FF4E7
:10102000806706F47046A6F50056B6FA86F639468D
:101030002846760900F0CEF830B3A3891A4A43F067
:101040008003AA62C4E90407A3812060002ED9D0DE
:101050002846B4F90E1000F0A3FE0028D2D0A389D0
:1010600023F0030343F00103A381CBE7A38913F02B
:10107000800F14BF40274FF480672846394600266A
:1010800000F0A8F80028D8D1B4F90C309A05B9D4EA
:10109000012123F0030304F1470243F00203C4E9F2
:1010A0000421A3812260ADE7390D000870B50C461C
:1010B000B1F90E10164600291D4696B013DB6A469C
:1010C00000F0E2FC00280EDB01994FF4806301F48C
:1010D0007041A1F50051B1FA81F100204909296060
:1010E000336016B070BD0022B4F90C302A601B06C4
:1010F00004D540230020336016B070BD4FF48063E8
:101100000020336016B070BD002952D038B551F8B8
:10111000043C0C1F002BB8BFE418054600F0A2FFEA
:101120002B4A1368002B45D0A3420CD921686018C4
:10113000834228D0636028461460BDE8384000F040
:1011400093BFA3420FD81A465B68002BF9D11168F0
:10115000501884421DD034D3636054602846BDE8E3
:10116000384000F081BF11685018A04215D028D82F
:10117000216860188342EFD118685B680144C4E9B4
:1011800000135460EAE718685B680144C4E900137F
:10119000D1E7236819441160E0E720680144501842
:1011A00083421160DAD1D3E900030144C2E900139C
:1011B000D4E77047284663601460BDE8384000F00B
:1011C00053BF0C2328462B60BDE8384000F04CBFCD
:1011D00098000020F8B5CD1C25F0030508350C2D2E
:1011E00038BF0C25002D064623DBA94221D8264F07
:1011F00000F038FF3A6822B3144603E063682246E1
:10120000FBB11C4623685B1BF8D40B2B15D8636815
:1012100094420CBF3B605360304600F025FF04F160
:101220000B00231D20F00700C21A01D01B1AA35087
:10123000F8BD0C2300203360F8BD23601C442560FA
:10124000EAE77968D1B12946304600F09BFB431CA0
:1012500001460CD0C41C24F00304A04205D0304643
:10126000611A00F08FFB013001D02560D4E70C2318
:101270003046336000F0F8FE0020F8BD304600F044
:1012800081FB7860DFE700BF980000209368013B96
:10129000002B936005DAD2F818C0634507DB0A29F2
:1012A00005D01368581C1060084619707047FFF786
:1012B0006FBB00BF9BB1F8B5134406460F46541EE2
:1012C0005D1E01E0AC4208D03A46304614F8011FDA
:1012D000FFF7DCFF431CF5D1F8BD0020F8BD00206E
:1012E000704700BF936810B5144613B91846536091
:1012F00010BD00F0DDFB0023C4E9013310BD00BFC9
:101300002DE9F04F0E4692461C4607469FB018B195
:101310008369002B00F0A880954B9E4200F0AA80C4
:10132000944B9E4200F0B580934B9E4208BFFE68EE
:10133000B389180740F1A3803369002B00F09F8028
:10134000002320220B9330239AF8001005940125E6
:101350008A4C8DF831208DF8323000297DD0D1466D
:101360000B4604E019F8013F002B00F09480252B78
:10137000F8D1B9EB0A0B40F0918099F80030002BBE
:101380006BD000234FF0FF3209F10109CDE90723AB
:10139000069309938DF85B301C9304E0001B05FA5B
:1013A00000F018430690CA460522204619F8011B92
:1013B00000F01EFD069B0028F0D1D90644BF202274
:1013C0008DF85B201A0748BF2B229AF8001048BFFF
:1013D0008DF85B202A2972D1059A11680432002900
:1013E0000592C0F2A08009919AF801100AF1010A51
:1013F0002E2976D0DFF888910322484600F0F8FCC9
:1014000048B14022069BA0EB090002FA00F003431A
:101410000AF1010A06931AF8011B062259488DF8B1
:10142000301000F0E5FC002800F08380564B002BC4
:101430006CD005A9009132463846544B06A9AFF34B
:1014400000800390039B013307D00B9B039A9AF80B
:10145000001013440B93002981D1B3895B0615D486
:101460000B981FB0BDE8F08FFFF75CFD404B9E422C
:101470007FF456AF7E68B38918073FF55DAF3146FC
:101480003846FFF7E7FA00283FF45AAF4FF0FF3035
:10149000E7E7BE684CE7B9EB0A0BDED0D046CAF1ED
:1014A000010A03E0934538D918F8011F324638463F
:1014B000FFF7ECFE01300AEB0802F3D1CDE7A1F112
:1014C0003002092A94D8099B1AF8011F03EB830301
:1014D00002EB4303A1F13002092AF5D92E29099321
:1014E00088D19AF801102A292DD1059B0AF1020012
:1014F0001A680433002A0593B8BF4FF0FF339AF8F7
:10150000021007928246B8BF079373E7059B073323
:1015100023F007030833059397E70B9A99F80030F7
:101520005A440B922BE7494243F002030991069378
:101530005AE705A9009132463846144B06A900F037
:10154000CBF803907EE70023A1F13002092A0AF1CB
:10155000010A07933FF64EAF1AF8011F03EB83030E
:1015600002EB4303A1F13002092AF5D9079341E7C1
:10157000C0390008A039000880390008BC3A0008CA
:10158000C43A0008C83A000800000000B51200087C
:101590008C4600B586461346034A714610685DF8CE
:1015A00004EB6246FFF7ACBE000000202DE9F047D7
:1015B00091461E460A698B680C469A42B8BF1A4685
:1015C000C9F8002091F843300546DDF8208013B1BA
:1015D0000132C9F80020226891065DD5D9F80030A3
:1015E0000233C9F80030226812F0060F11461ED1EE
:1015F000E168CB1A002BD8BF114618DD002704F193
:10160000190A06E0D9F80030E268A2EB030CBC45E9
:101610000CDD0123524631462846C047013007F110
:101620000107EFD14FF0FF30BDE8F087216894F853
:101630004330003B18BF01238A060AD53021E21847
:1016400082F8431094F845105A1C2244023382F861
:1016500043103146284604F14302C0470130E1D02F
:10166000236803F00603042B1DD0A368226993426C
:1016700025DD00279B1A1F4404F11A09002401E00C
:10168000BC421CDA01234A4631462846C047013095
:1016900004F10104F4D1C5E712F0060F12D0003BAB
:1016A00018BF0123D5E7D9F80030E1682269C91ACB
:1016B000A36821EAE1779342DCDC0029DCDC00202E
:1016C000BDE8F087E168D9F80030CB1A002BD8BF0D
:1016D000114693DCABE700BF2DE9F04317460A7EC5
:1016E00085B00C46064698460C9D01F1430C002A35
:1016F00033D0A2F15803D9B2202967D8202B65D85E
:10170000DFE813F0DD00640064006400640064003E
:1017100064006400640064006400A3006E00640060
:101720006400640064006E0064006400640064008F
:1017300021007F00BF0064006400AE0064007F00F1
:1017400064006400E40023681A0640F102812B68FB
:101750006269191D29601B681A600023E146236134
:101760003B4621463046CDF8008003AAFFF71EFF16
:10177000013020D04A46394630462369C0470130FF
:1017800019D02368E0689B07039919D5431A002BE9
:1017900016DD002504F1190904E0E0680399431AF5
:1017A000AB420DDD01234A4639463046C047013081
:1017B00005F10105F1D14FF0FF3005B0BDE8F08330
:1017C0008842B8BF084605B0BDE8F083012384F81D
:1017D000422004F142092361002384F84330BFE72B
:1017E0002368190602D45A0600F1BF8029680A68E6
:1017F000043129601146002A6ADB0A25DFF87CE102
:1018000010E02368180640F19A802B68191D2960A2
:1018100019686F2A0CBF08250A25DFF860E100234C
:1018200084F843306268002AA2607DDB236823F0DD
:1018300004032360002959D1002A77D1E146082DFD
:1018400063D0ACEB090323618AE701222B6804F122
:101850004209196804332B6084F842102261BBE707
:101860002B6800211A1D2A60D3F800906268484650
:1018700000F0BEFA00287FD0A0EB09006060206174
:10188000AAE7236843F0200323607822DFF8F0E022
:1018900084F845202A68111D2960190642D45D0686
:1018A00040D51188D80744BF43F0200323600029A6
:1018B00043D12368102523F020032360AFE758238A
:1018C000DFF8B8E084F845302368E3E72368DCE715
:1018D0002D2284F8432062684942002AA26002DB7C
:1018E00023F0040323600A25DFF890E0E146B1FB12
:1018F000F5F30A4605FB131019461EF80030AA42FC
:1019000009F8013DF3D2082D9BD12368D90798D55A
:10191000626823699A4294DC302309F1FF3989F81F
:1019200000308EE71168BDE70029DFD19EF8003056
:1019300004F1420984F8423081E710256FE713F083
:10194000400F2B6803F1040129600CBF1968198846
:101950005FE713F0400F2B68626903F1040129600F
:101960001B6814BF1A801A60F7E62A68B2F90010E3
:1019700004322A600A463EE7606880E7D03A0008F1
:10198000E43A0008002238B5064D044608462A60AD
:1019900000F0DCFB431C00D038BD2B68002BFBD0D3
:1019A000236038BDA000002010B50C46B1F90E1020
:1019B00000F084FB002803DB636D0344636510BD06
:1019C000A38923F48053A38110BD00BF002070477A
:1019D0002DE9F0410C46B1F90C101F46CB05054628
:1019E00016460BD421F48051A1813B46324628464D
:1019F000B4F90E10BDE8F04100F01EB8B4F90E10B5
:101A00000223002200F0DEF9B4F90C10EAE700BF6F
:101A100010B50C46B1F90E1000F0D4F9A389421CA0
:101A20000EBF23F4805343F480536065A38110BD3F
:101A3000B1F90E1000F016B838B50C461146002268
:101A40008446074D20462A601A46644600F08CFB07
:101A5000431C00D038BD2B68002BFBD0236038BD61
:101A6000A0000020002238B5064D044608462A6032
:101A700000F044FB431C00D038BD2B68002BFBD08A
:101A8000236038BDA000002070B50026074D044635
:101A9000084611462E6000F039FB431C00D070BD93
:101AA0002B68002BFBD0236070BD00BFA00000207E
:101AB0009368002B00F0B7802DE9F04FB1F90C309E
:101AC0000C4619078046174683B098B225D523697E
:101AD0001BB310F002033D682DD04FF0000B5E46A3
:101AE000DFF8B8A2002E00F08B80564533465A46E8
:101AF00028BF53464046216AD4F828C0E047002852
:101B000040F38780BB6883441B1A361ABB60002BE6
:101B1000E8D1002003B0BDE8F08F21464046FEF733
:101B200099FF002840F03681B4F90C303D6898B236
:101B300010F00203D1D110F0010976D14E46002EEB
:101B40005AD08205D4F808B040F1B580B3455A4662
:101B500000F2CD8010F4906F00F0CB8023682169F3
:101B6000A3EB010B636903EB430A0AEBDA7A0BF18F
:101B700001034FEA6A0A33445345524684BF9A46EA
:101B80005246430540F1EA8011464046FFF722FBEA
:101B9000002800F0F9805A462169019000F070F9A0
:101BA000A289019B22F4906242F08002A28103EBA1
:101BB0000B0023613246AAEB0B03B346C4F814A012
:101BC000A3602060B24600264946019200F0CEF99B
:101BD000A3682168019AA3EB0B030A44A360226067
:101BE000B868D144A0EB0A00B860002891D0B4F9DD
:101BF0000C0080B2002EA4D1D5E9009608359EE7EE
:101C0000D5E900B608356DE721464046FFF728F8CC
:101C100080B3B4F90C304FF0FF3043F04003A381A0
:101C200003B0BDE8F08F002070471E46AA469946D3
:101C300018461D4656B3002832D04A46206821690E
:101C4000B24228BF32468842636904D9A16803EBD7
:101C5000010B5A4574DC934265DC2A464046216AF2
:101C6000D4F828C0E047B0F1000BD2DDB9EB0B0986
:101C7000CAD00120BB685D44A3EB0B03A6EB0B06A7
:101C8000BB60002B3FF445AF002ED4D10AF108030E
:101C900053F8046C9A4653F8085C0833002EF7D0CA
:101CA00032460A21284600F0A3F8002869D0013006
:101CB000A0EB0509C1E72068236998421BD8636936
:101CC000B34218D86FF0004CB44528BFB4469CFB13
:101CD000F3FC4A4603FB0CF34046216AD4F828C0C3
:101CE000E047B0F1000A94DDA6EB0A0678E7B346B8
:101CF0003246206866E7B345DA4628BFB246494611
:101D0000524600F033F9A3682268A3EB0A03524459
:101D1000A3602260002BE7D121464046FEF7A0FFDA
:101D20000028E1D075E729469346019200F01EF99C
:101D3000A368019A9B1AA36023681A44226095E75E
:101D400029465A4600F012F9236821465B44404672
:101D50002360FEF785FF002888D05AE7404600F050
:101D600085F9034600287FF422AF40462169FFF73A
:101D7000CBF90C22B4F90C30C8F8002023F0800312
:101D800049E7721C914659E70C22B4F90C30C8F8A7
:101D9000002040E74FF0FF30BCE600BF00FCFF7FB3
:101DA000002238B5064D044608462A6000F0B6F910
:101DB000431C00D038BD2B68002BFBD0236038BDFE
:101DC000A000002038B50C46114600228446074D7D
:101DD00020462A601A46644600F0A8F9431C00D049
:101DE00038BD2B68002BFBD0236038BDA00000203D
:101DF0005FFA81FC810710D00346511E2AB90AE020
:101E00009A0718460AD0013905D3184613F8012B52
:101E10006245F5D1704700207047114603290CD860
:101E20000029F8D00346014401E08B42F3D0184664
:101E300013F8012B6245F8D1ECE7024610B54CEAE5
:101E40000C2444EA04441046036804326340A3F1BE
:101E5000013E2EEA030313F0803F04D10439032925
:101E60001046F0D851B10346014401E08B4205D041
:101E7000184613F8012B6245F8D110BD002010BDA3
:101E8000844641EA000313F0030349D1403A23D3C7
:101E90000B6803604B6843608B688360CB68C360EA
:101EA0000B6903614B6943618B698361CB69C361D2
:101EB0000B6A03624B6A43628B6A8362CB6AC362BA
:101EC0000B6B03634B6B43638B6B8363CB6BC363A2
:101ED00040304031403ADBD230320BD30B680360E4
:101EE0004B6843608B688360CB68C36010301031EF
:101EF000103AF3D20C3205D351F8043B40F8043BBE
:101F0000043AF9D2043208D0D2071CBF11F8013BC1
:101F100000F8013B01D30B8803806046704700BF87
:101F2000082A13D38B07B1D010F00303AED0C3F14E
:101F30000403D21ADB071CBF11F8013B00F8013B78
:101F4000A4D331F8023B20F8023B9FE7043AD9D3EF
:101F5000013A11F8013B00F8013BF9D20B7803700C
:101F60004B7843708B7883706046704788420DD9F8
:101F70008B1883420AD900EB020CBAB1624613F8FF
:101F800001CD994202F801CDF9D170470F2A0ED840
:101F9000034602F1FF3C4AB10CF1010C013B8C44B9
:101FA00011F8012B614503F8012FF9D1704740EA80
:101FB00001039B074FD1A2F1100370B501F1200C72
:101FC00023F00F0501F1100E00F11004AC441B09C1
:101FD0005EF8105C0EF1100E44F8105C5EF81C5CAC
:101FE000103444F81C5C5EF8185C44F8185C5EF829
:101FF000145CE64544F8145CEAD1013312F00C0F8E
:1020000001EB031102F00F0400EB031327D08E46FF
:10201000043C24F003064FEA940C1E441C1F5EF897
:10202000045B44F8045FB442F9D10CF1010402F0FE
:10203000030203EB840301EB840102F1FF3C4AB18C
:102040000CF1010C013B8C4411F8012B614503F8A4
:10205000012FF9D170BD034602F1FF3C9CE72246F7
:10206000EBE700BF704700BF704700BFF8B51446EC
:10207000F9B1CAB106460D4600F036F8A04202D3C7
:102080002F463846F8BD21463046FFF7A3F80746ED
:102090000028F6D022462946FFF7F2FE30462946B0
:1020A000FFF732F83846F8BD2746FFF72DF83846D7
:1020B000F8BD1146BDE8F840FFF78CB838B50C46BE
:1020C000114600228446074D20462A601A4664467F
:1020D00000F034F8431C00D038BD2B68002BFBD037
:1020E000236038BDA000002051F8040C0028A0F1A6
:1020F0000400BCBF0B58C018704700BF5822024BE9
:102100004FF0FF301A607047A00000205822024BA9
:102110004FF0FF301A607047A00000205822024B99
:1021200000201A60704700BFA00000205822024B18
:102130004FF0FF301A607047A00000205822024B79
:102140004FF0FF301A607047A0000020044A054994
:102150001368002B08BF0B461844106018467047E0
:10216000A4000020000100205822024B4FF0FF3055
:102170001A607047A0000020704700BFFEE700BF54
:10218000FEE700BFFEE700BFFEE700BF704700BFED
:10219000704700BF704700BF704700BF10B40020F9
:1021A0004FF41F04394A3A4B116883B041F00101E2
:1021B000116051680B405360136823F0847323F45B
:1021C00080331360136823F480231360536823F46F
:1021D000FE035360946000900190136843F48033D1
:1021E000136003E0009BB3F5A06F09D0136803F4FC
:1021F00000330193009B01330093019B002BF1D02E
:10220000224B1B6813F4003318BF01230193019B79
:10221000012B06D04FF000621E4B9A6003B010BC39
:1022200070471D4A194B116841F010011160116887
:1022300021F003011160116841F0020111605A6838
:102240005A605A685A605A6842F480625A605A6802
:1022500022F47C125A605A6842F4E8125A601A68F2
:1022600042F080721A601A689201FCD55968074AD8
:1022700021F003015960596841F002015960536827
:1022800003F00C03082BFAD1C4E700BF0010024092
:102290000000FFF800ED00E0002002402DE9F843C7
:1022A00000F096FC4FF4A06000F0AEFD4FF4E1307A
:1022B00000F0C8FC00F062FB00F088FB012302255F
:1022C000204A214FC2F894312048C7F89431FEF7D4
:1022D00057FB1F48FEF754FB28460024DFF87480A4
:1022E00000F07CFB0234A4B2C72C11D9012000F00D
:1022F00031FB0646022000F02DFB8146032000F052
:1023000029FB4A460346314640460024FEF7B6FA0A
:102310000220023500F07AFCADB2022000F05EFB34
:10232000B5F5FA7FDED3D7F894310234B3FA83F3EC
:10233000A4B25B09C72C4FF00005C7F89431D5D87B
:10234000E6E700BF0080214200002342E039000898
:10235000083A0008403A00082DE9F04FDFF8F09005
:10236000DFF8F0803C4F3D4E3D4C3E4D89B00021A2
:102370003D4800F0E3FD034603AA3B48002B64D030
:10238000002100F08DFD9DF81430002BEFD19DF859
:102390001630072BEBD90122DFF8D0A09DF81B10D7
:1023A0009DF81AB08AF80020BDF818000A02090941
:1023B0009DF8173041EA0B1B9DF81C1040BA02F43F
:1023C00070620A4380B2190903F00F0301928AF880
:1023D00002108AF80130FDF7A5FF4946FDF7FAFF24
:1023E0004146FEF7ABF83946FDF7EAFE034658468C
:1023F000CAF80430FDF796FF3146FDF7EBFF2146A2
:10240000FEF79CF82946FDF7DBFE0346019ACAF861
:1024100008301046FDF786FF1549FDF7DBFF214622
:10242000FEF78CF81349FDF7CBFE9DF81E309DF8A2
:102430001D20CAF80C008AF810208AF81130DAF84A
:1024400014300133CAF8143091E709B0BDE8F08FB9
:102450000000C84100FF7F47000048410000704273
:1024600000F07F450000F04100640040A80000201B
:102470000000A0410000204130B54FF4807341F6C8
:10248000030583B0044601A92248ADF80430ADF835
:10249000065000F05FFD4FF400731E4801A9ADF82F
:1024A0000430ADF8065000F055FD012208211A480D
:1024B00001F066F901220C21174801F061F9B4F529
:1024C0007A7F13DC14F57A7F0CDA4FF47A740021EA
:1024D000114801F06BF921460F4803B0BDE83040C8
:1024E00001F066B9002C0DDDA1B201E04FF47A7164
:1024F000094801F05BF90021074803B0BDE830400E
:1025000001F056B902D121460348F2E76442A4B271
:10251000DDE700BF000C0140000800402DE9F04756
:1025200041F603054FF4807888B0012142F61D0082
:1025300000F026FF01210F2000F02EFFA64804A97D
:10254000ADF81250ADF8108000F004FD0223A2484F
:1025500004A9ADF8103000F0FDFC04239E4804A946
:10256000ADF8103000F0F6FC4FF440739B4804A91E
:10257000C026ADF8103000F0EDFC4823964804A9C1
:10258000ADF810608DF8133000F0E4FC092300244E
:10259000914804A9ADF8103000F0DCFC904804A983
:1025A000ADF8106000F0D6FC21468E4800F068FEC1
:1025B00021468D4800F064FE21468C4800F060FE04
:1025C00021464FF4805000F05BFE844804A9ADF82A
:1025D0001250ADF8108000F0BDFC4FF40073844E33
:1025E0007E4804A9ADF81030ADF8125000F0B2FCEE
:1025F00001220821304601F0C3F801220C213046A7
:1026000001F0BEF8472240F2E7334FF6FF79CDE9FB
:102610000123784B784801A904938DF80C40CDF83C
:10262000164000F0C5FE744804A900F017FF082109
:10263000714801F081F801216F4801F06FF8012124
:102640006D4801F033F821466B4801F0ABF82146A4
:10265000694801F01DF84FF0804001A900F0A8FE84
:102660004FF0804004A900F047FF4FF08040082160
:1026700001F06AF84FF0804004A900F085FF0821BE
:102680004FF0804001F06AF84FF08040012101F0E6
:1026900045F821464FF0804001F086F821464FF082
:1026A000804001F083F821464FF0804000F0F0FFB9
:1026B000304601A900F07CFE304604A900F064FF1A
:1026C0003046082101F04AF8304604A900F0A4FF82
:1026D0000821304601F04AF83046012101F01EF889
:1026E0002146304601F062F82146304601F060F89C
:1026F0002146304600F0CCFF404804A9CDE904490A
:102700008DF8184000F054FE2346224603213B4832
:1027100000F0DCFF2146394801F042F8012137483A
:1027200000F0B6FF364804A9CDE904498DF81840F9
:1027300000F03EFE234622460321314800F0C6FF4A
:1027400021462F4801F02CF801212D4800F0A0FF70
:102750002C4804A9CDF8149004948DF8184000F08A
:1027600027FE234622460321264800F0AFFF264FCE
:102770002146244801F014F8012122483D4607F182
:102780000C0A00F085FF2C80A5F80280002130465D
:1027900001F00CF804350021304601F009F85545E8
:1027A000F1D1BC79BB7AB978234314BF0125002548
:1027B000003918BF0121104800F06AFF29464FF088
:1027C000804000F065FF211E18BF0121084808B0B5
:1027D000BDE8F04700F05CBF00080140000C01407C
:1027E000001001400001180000021800000318004A
:1027F0000008004060000100002C0140000400407F
:10280000000C004000340140C0000020F0B5FF285B
:102810000D4683B037D10E1E18BF012602270120B6
:10282000314CFFF7F3FF29460220FFF7EFFFA672B6
:10283000D6B1A579A37AA1782B4314BF0124002433
:10284000003918BF0121294800F022FF21464FF02E
:10285000804000F01DFF291E18BF0121244803B04D
:10286000BDE8F04000F014BF012204EB87033146BD
:102870001F48DA7024F8276000F098FF31461C48A2
:1028800000F096FFD5E7471EFFB2022F01D903B033
:10289000F0BD0E1E18BF0126134C012F04EB870359
:1028A0009E70C5D14FF4807341F60305114801A90C
:1028B000ADF80430ADF8065000F04CFB4FF4007357
:1028C0000C4801A9ADF80430ADF8065000F042FB09
:1028D0003A460821064800F053FF3A460C210448C6
:1028E00000F04EFFA679A3E7C0000020002C0140B5
:1028F00000080040000C0140FF2802D0022800D050
:10290000704738B5114DA879D8B16FF06304A14272
:10291000B8BF21466429A8BF642101EB81010C489E
:102920004C0024B2A042B8BF2046E443B0F57A7F01
:10293000A8BF4FF47A70E40FA880FFF79DFDEC71FB
:1029400038BDA880BDE83840FFF796BDC000002024
:1029500018FCFFFF0138C0B202280AD808B5064BA0
:10296000C0EBC00003EB8000006900F025FF00B25F
:1029700008BD0020704700BF603A000870B5012113
:1029800082B0482000F0FCFC202441F203030D4EED
:102990000D4D304601A9ADF80630ADF8044000F009
:1029A000D9FA2146304600F069FC284601A9ADF865
:1029B000044000F0CFFA2146284600F05FFC02B048
:1029C00070BD00BF000C0140001801400022024B06
:1029D0001A70FFF7A3BD00BFF5000020704700BFCD
:1029E00070B5837882B0013B042B0CD8DFE803F08C
:1029F0002B03566A0D000021FF20FFF77DFF012207
:102A0000434BC3F8942102B070BD4378022BFAD92E
:102A1000B0F904403F4BC0789C426ADB43F2B0639C
:102A20009C4263DC3C4BE11783FB04232344C1EB52
:102A3000E31109B2FFF760FF5CBB0122344BC3F81E
:102A4000942102B070BD4378022BDCD90379C6789B
:102A5000642B447948D81846FDF764FC0546012CE0
:102A60004BD0002C51D105F10040FDF779FE01B2A9
:102A700011F1640FB8BF6FF0630142DA3046FFF71F
:102A80003BFF022CD9D028460021FDF75FFE00282D
:102A9000D3D000221E4BC3F89421B4E7EC461F4B61
:102AA0001F4A93E80300ADF8041000900DF10601F1
:102AB00013885B06FCD51CF8013B8C459380F7D14D
:102AC00002B070BD4378012B9DD90579C478291EC9
:102AD00018BF01212046FFF799FE002D93D129460A
:102AE0002046FFF709FFA8E70E4DB8E764211C4612
:102AF000A0E76FF063011C469CE72846FDF730FE17
:102B000001B26429A8BF6421B8E70021B6E700BF7D
:102B10000080214250C9FFFFEBA00EEAB43A000842
:102B2000003801400000C84210B5254C2378042B22
:102B30000BD8DFE803F00D141D2D0300214A224BB2
:102B4000127883F82300824235D00023237010BD11
:102B5000AA28FCD101231C4A1070237010BD202824
:102B6000F3D802231849174A48701070237010BD1B
:102B70004FF0000C144B134A98705978137818448E
:102B8000124B107083F800C091B10323237010BD65
:102B90000E490A78531CDBB20B700B490A4491F8BA
:102BA00001C00849D0700A789C4510440870CED8FE
:102BB0000423237010BD1846FFF712FFC5E700BFBE
:102BC000F5000020CC000020D0000020F400002000
:102BD0006FF0040008B500F057F9084B084A1B686D
:102BE0000848A2FB0323C3F34753C3EB4312064930
:102BF00003EB8202D20003700A8008BD640000204B
:102C000083DE1B43F8000020F60000204FF0E02296
:102C100000210B4B1B8800FB03F353619161136987
:102C200043F001031361136903F00113012BFAD080
:102C30000021136923F0010313619161704700BF04
:102C4000F60000202DE9F04F012187B0814644F2C3
:102C50000C0000F095FB01214FF4C02000F09CFB1C
:102C600041F6030A4FF4007304244FF4806B424F83
:102C700069463846ADF80030ADF802A000F06AF9B8
:102C8000694638468DF80340ADF800B000F062F9AF
:102C90003A4B0DEB0400019300F0C0F8384B0DEBFC
:102CA0000400019300F0BAF8364B0DEB0400002548
:102CB000019300F0B3F84FF44023DFF8CC8002A971
:102CC00040460493CDF80890ADF81450039500F0F9
:102CD00077FD0122404640F2255100F0DBFD4046E1
:102CE000012100F0C9FD0823284E38466946ADF899
:102CF00000308DF8034000F02DF9304602A9ADF800
:102D0000124000F05DFD0122304640F2255100F0F6
:102D1000C1FD3046012100F0AFFD0C2306F5484609
:102D2000ADF812301A4B694630461D70ADF800B050
:102D3000ADF802A000F00EF94FF400638DF80340E7
:102D4000144C69463046ADF8003000F003F92046D7
:102D500002A900F035FD0122204640F2255100F085
:102D600099FD0121204600F087FD01220A4B1A70CF
:102D700007B0BDE8F08F00BF000801402503030144
:102D800026030201270301010038014000440040EE
:102D9000F900002000480040FA00002008B540F289
:102DA0002551064800F094FD00B908BD034800F025
:102DB0008BFDBDE80840C0B2FFF7B6BE0038014049
:102DC00008B540F22551064800F082FD00B908BD63
:102DD000034800F079FDBDE80840C0B2FFF7A4BE8B
:102DE0000048004008B540F22551064800F070FD4B
:102DF00000B908BD034800F067FDBDE80840C0B257
:102E0000FFF792BE00440040034B40F0BF6040F427
:102E10000030D860704700BF00ED00E0C37813B306
:102E2000174A30B5D1684FF0010EC9430F2382789D
:102E300090F801C00078C1F3022100F01F040EFADF
:102E400004F4CB40C1F1040E13400CFA0EFC0D4DFE
:102E500043EA0C031B012A18DBB2400982F8003355
:102E600045F8204030BD0121037806485A0903F097
:102E70001F03203201FA03F340F82230704700BFED
:102E800000ED00E000E100E04FF0E02213690428CB
:102E90000CBF43F0040323F004031361704700BF29
:102EA00000EB011C10B4DCF8B0410B0104F0040489
:102EB0001472BCBBDCF8B041640D1460DCF8B041A6
:102EC000034404F002045472DCF8B44104F00F042B
:102ED0009472DCF8B441240AD474D3F8B841D472A3
:102EE000D3F8B841240A1473D3F8B841240C5473AE
:102EF000D3F8B841240E9473D3F8BC41D473D3F8FB
:102F0000BC41240A1474D3F8BC41240C5474D3F883
:102F1000BC311B0E937451B9C36810BC43F020033D
:102F2000C3607047DCF8B041E4085460C6E7036949
:102F300010BC43F020030361704700BF19B9C0689B
:102F400000F003007047012906BF006900F003008C
:102F50000020704700B591F803C01CF0100F18BF97
:102F60008B780CF00F0E18BF4EEA030E0B88DAB206
:102F7000002A36D0BCF1480F026800F0B380BCF1E3
:102F8000280F00F03A81D90744BF22F00F024EEA21
:102F90000202990744BF22F0F00242EA0E125907DA
:102FA00044BF22F4706242EA0E22190744BF22F4A1
:102FB000704242EA0E32D90644BF22F4702242EA3D
:102FC0000E42990644BF22F4700242EA0E5259069C
:102FD00044BF22F0706242EA0E62190600F10A81D3
:102FE0000260FF2B4AD9BCF1480F426848D1D9058D
:102FF00006D54FF4807122F00F024EEA0202016101
:10300000990506D54FF4007122F0F00242EA0E1243
:103010000161590506D54FF4806122F4706242EADD
:103020000E220161190506D54FF4006122F47042A9
:1030300042EA0E320161D90406D54FF4805122F4E0
:10304000702242EA0E420161990406D54FF4005104
:1030500022F4700242EA0E520161590406D54FF47F
:10306000804122F0706242EA0E6201611B0404D5C5
:103070004FF400436EF31F72036142605DF804FB7E
:10308000BCF1280F6ED0D90544BF22F00F024EEAE2
:103090000202990544BF22F0F00242EA0E125905DD
:1030A00044BF22F4706242EA0E22190544BF22F4A2
:1030B000704242EA0E32D90444BF22F4702242EA3E
:1030C0000E42990444BF22F4700242EA0E5259049F
:1030D00044BF22F0706242EA0E621B04CDD56EF34B
:1030E0001F72CAE7D90705D5012122F00F024EEA67
:1030F00002020161990705D5022122F0F00242EA9D
:103100000E120161590705D5042122F4706242EACA
:103110000E220161190705D5082122F4704242EA06
:103120000E320161D90605D5102122F4702242EA3F
:103130000E420161990605D5202122F4700242EA6F
:103140000E520161590605D5402122F0706242EA13
:103150000E62016119067FF543AF80216EF31F7285
:1031600001613DE7D90506D54FF4807122F00F02C9
:103170004EEA02024161990506D54FF4007122F032
:10318000F00242EA0E124161590506D54FF4806102
:1031900022F4706242EA0E224161190506D54FF40D
:1031A000006122F4704242EA0E324161D90406D530
:1031B0004FF4805122F4702242EA0E424161990498
:1031C00006D54FF4005122F4700242EA0E524161DA
:1031D000590406D54FF4804122F0706242EA0E6233
:1031E00041611B047FF549AF4FF400436EF31F723A
:1031F000436142E76EF31F72F2E6D90705D501215C
:1032000022F00F024EEA02024161990705D5022120
:1032100022F0F00242EA0E124161590705D504215D
:1032200022F4706242EA0E224161190705D5082195
:1032300022F4704242EA0E324161D90605D51021CE
:1032400022F4702242EA0E424161990605D52021FE
:1032500022F4700242EA0E524161590605D540211E
:1032600022F0706242EA0E62416119067FF5B8AE43
:1032700080216EF31F724161B2E600BF01617047A9
:1032800000281A4B00F44012B4BFDB695B68B2F54A
:10329000401F10B41FFA80FC1FD0C20214D50322B5
:1032A000C0F30344A24023EA020343F0706321B158
:1032B000420D12010CFA02F213430C4A002810BC12
:1032C000B4BFD36153607047420D12010CFA02F291
:1032D00023EA020343F07063E9E7044C23F07063D0
:1032E000626822F070626260E1E700BF00000140A6
:1032F0001E4A10B4536803F00C03082B21D01C4A5B
:1033000013460260194A1B4C5168C1F30311615CFA
:10331000CB4043605168C1F30221615C23FA01F1A3
:1033200081605168C1F3C221645C1349E340C3600A
:10333000526810BCC2F381328A5CB3FBF2F30361C2
:10334000704753685168C3F38343C90303F1020311
:1033500007D55268920304D4054A02FB03F30360C5
:10336000D0E7064A02FB03F30360CBE700100240FC
:1033700000127A006C0000206800002000093D0067
:10338000044A936911B118439061704723EA000021
:103390009061704700100240044AD36911B118438C
:1033A000D061704723EA0000D061704700100240EE
:1033B000274A038890429BB212D002F500629042E5
:1033C0000ED0B0F1804F0BD0A2F59832904207D0CA
:1033D00002F58062904203D002F58062904203D1F0
:1033E0004A8823F0700313431A4A904217D002F51B
:1033F0008062904213D0CA8823F440739BB2134377
:10340000B1F804C00380124B0A889842A0F82CC07F
:1034100002850CD10B7A03860123838270470380D7
:103420008B8883850B8803850123838270470A4B31
:103430009842EFD003F540639842EBD003F58063E8
:103440009842E7D003F580639842E3D0ECE700BFF1
:10345000002C01400010004000340140038C30B5C6
:1034600023F001031B041B0C0384038CB1F808E058
:10347000B0F804C04D88028B23F002031B044EEA0F
:10348000050E1C4C1B0C22F0730243EA0E031204BF
:10349000B1F800E0120CA0421FFA8CFC9BB242EA89
:1034A0000E020FD004F50064A0420BD004F5406476
:1034B000A04207D004F58064A04203D004F58064E4
:1034C000A04210D14C8923F008032343CD898C8975
:1034D0002CF4407C2C434CEA040C8C8823F004032D
:1034E0001FFA8CFC2343C988A0F804C0028381869C
:1034F000038430BD002C0140038C30B523F0100351
:103500001B041B0C0384038CB1F808E0B0F804C062
:103510004D88028B23F020031B044EEA050E1B0C82
:1035200022F4E64243EA0E13164CB1F800E012040E
:10353000120C42EA0E22A0421FFA8CFC9BB292B2FD
:103540000AD004F50064A04206D0C988A0F804C0DF
:1035500002830187038430BD4FF6BF744D8923F089
:10356000800343EA05131C40CD898B892CF4406C01
:103570002B434CEA830C8B881FFA8CFC44EA031320
:103580009BB2E2E7002C0140038C30B523F480733A
:103590001B041B0C0384038CB1F808E0B0F804C0D2
:1035A0004D88828B23F400731B044EEA050E194CE0
:1035B0001B0C22F0730243EA0E231204B1F800E060
:1035C000120CA0421FFA8CFC9BB242EA0E020AD0F7
:1035D00004F50064A04206D0C988A0F804C0828324
:1035E0008187038430BD4FF6FF344D8923F4006397
:1035F00043EA05231C40CD898B892CF4405C2B4386
:103600004CEA031C8B881FFA8CFC44EA03239BB210
:10361000E2E700BF002C0140038C30B523F4805357
:103620001B041B0C0384038CB1F808E0B0F804C041
:103630004D88828B23F400531B044EEA050E1B0CAD
:1036400022F4E64243EA0E33104CB1F800E01204D3
:10365000120C42EA0E22A0421FFA8CFC9BB292B2DC
:103660000BD004F50064A04207D0C988A0F804C0BC
:103670008283A0F84010038430BD8C892CF4804CE8
:103680004CEA841C1FFA8CFCEFE700BF002C0140C1
:10369000038821B19BB243F001030380704723F0FC
:1036A00001031B041B0C0380704700BFB0F84430BB
:1036B00039B16FEA43436FEA53439BB2A0F84430F9
:1036C0007047C3F30E03A0F84430704710B5B0F84C
:1036D00008E0B0F818C02EF0070E4FEA0E4E4FEA81
:1036E0001E4E4EEA0104B0F820E02CF4407C2CF091
:1036F000030C2EF022014FEA0C4C090442EA03129B
:103700004FEA1C4C090C4CF4807C11434CF0010C2A
:1037100089B20481A0F818C0018410BD038821B1CA
:103720009BB243F080030380704723F080031B04A7
:103730001B0C0380704700BF038B23F008031B049E
:103740001B0C0B4303837047038B23F400631B04A0
:103750001B0C43EA01239BB203837047838B23F046
:1037600008031B041B0C0B4383837047838B23F4D8
:1037700000631B041B0C43EA01239BB28383704745
:103780004FF0010C038C0CFA01FC9BB223EA0C03F2
:103790000384038C8A401A4392B20284704700BFAC
:1037A00081847047818670470187704781877047A1
:1037B000A0F84010704700BF808C80B2704700BFF7
:1037C00030B504460D46238ACA889BB223F4405381
:1037D00013438A892382A389898823F4B05323F071
:1037E0000C031B041B0C0B43298987B00B4369890D
:1037F00001A80B439BB2A381A38A9BB223F440731D
:103800001343A382FFF774FDDDE903321849194819
:103810008C4208BF1346A28903EB830312F4004FC6
:103820002A6803EB830314BF52009200B3FBF2F348
:103830006425A0FB0321490905FB11330A01A18975
:1038400009040AD41B013233A0FB0313C3F343134F
:1038500013439BB2238107B030BDDB003233A0FBA2
:103860000313C3F3421313439BB2238107B030BD4C
:10387000003801401F85EB51838921B19BB243F48D
:1038800000538381704723F400531B041B0C838176
:10389000704700BF012301F01F0CC1F34211012941
:1038A00003FA0CF30DD002290CBF103014301AB1FA
:1038B0000268134303607047026822EA030303604F
:1038C00070470C30F3E700BF8088C0F308007047F2
:1038D0000123C1F3421201F01F0C012A03FA0CF379
:1038E00013D0022A0CBF028A828A92B21340028845
:1038F00092B243B10123090A03FA01F10A4214BF4B
:1039000018460020704718467047828992B21340CB
:10391000EDE700BF0C4885460C480D490D4A0023D1
:1039200002E0D458C4500433C4188C42F9D30A4A74
:103930000A4C002301E013600432A242FBD3FEF7DD
:103940002DFCFEF7ABFC70470000012000000020BA
:103950007C000020003B00087C000020FC000020D0
:10396000FEE70000F8B500BFF8BC08BC9E467047F3
:0C397000F8B500BFF8BC08BC9E467047CC
:10397C000400002000000000000000000000000017
:10398C00000000000000000000000000000000002B
:10399C00000000000000000000000000000000001B
:1039AC00000000000000000000000000000000000B
:1039BC0000000000000000000000000000000000FB
:1039CC0000000000000000000000000000000000EB
:1039DC0000000000456E636F646572206D6F746F3C
:1039EC007220617070207265616479202833206DBB
:1039FC006F746F7273292E0D0000000053796E6383
:103A0C0020636F6E74726F6C3A206D6F746F7231CD
:103A1C00202B206D6F746F72322E204D6F746F726D
:103A2C00333A20696E646570656E64656E742E0D34
:103A3C0000000000656E6320636E74206D313D25BF
:103A4C006C64206D323D256C64206D333D256C64B7
:103A5C000D0A0000002C014001000000000801408C
:103A6C0000010000000400400008014040008000FC
:103A7C0000000040020000000008014002000000AD
:103A8C00000C00400008014001000800000000404C
:103A9C000300000000080140040000000034014055
:103AAC000010014040008000AA02834F4B1F000011
:103ABC00232D302B20000000686C4C006566674598
:103ACC0046470000303132333435363738394142CD
:103ADC00434445460000000030313233343536372C
:0C3AEC0038396162636465660000000008
:043AF8009901000828
:043AFC00710100084C
:103B00000400002000000000C0390008A0390008AF
:103B100080390008000000000000000000000000E4
:103B20000000000000000000000000000000000095
:103B30000000000000000000000000000000000085
:103B40000000000000000000000000000000000075
:103B50000000000000000000000000000000000065
:103B60000000000000A24A04020406080000000051
:0C3B700001020304010203040607080917
:0400000508003915A1
:00000001FF
