:020000040800F2
:1000000000000120852B0008611F0008651F000803
:10001000691F00086D1F0008711F00080000000024
:10002000000000000000000000000000751F000834
:10003000791F0008000000007D1F0008811F0008D4
:10004000D12B0008D12B0008D12B0008D12B0008A0
:10005000D12B0008D12B0008D12B0008D12B000890
:10006000D12B0008D12B0008D12B0008D12B000880
:10007000D12B0008D12B0008D12B0008D12B000870
:10008000D12B0008D12B0008D12B0008D12B000860
:100090004D210008D12B0008D12B0008D12B0008DE
:1000A000D12B0008D12B0008D12B0008D12B000840
:1000B000D12B0008D12B0008D12B0008D12B000830
:1000C000D12B0008D12B0008D12B0008D12B000820
:1000D000D12B00088D240008D5240008B124000885
:1000E000D12B0008D12B0008D12B0008D12B000800
:1000F000D12B0008D12B0008D12B0008D12B0008F0
:10010000D12B0008D12B0008D12B0008D12B0008DF
:10011000D12B0008D12B0008D12B0008D12B0008CF
:10012000D12B0008D12B0008D12B0008D12B0008BF
:100130000348044B834202D0034B03B11847704776
:100140007C0000207C0000200000000005480649DB
:100150000B1AD90F01EBA301491002D0034B03B1D5
:10016000184770477C0000207C0000200000000041
:1001700010B5064C237843B9FFF7DAFF044B13B1EF
:100180000448AFF300800123237010BD7C000020E1
:1001900000000000D42B000808B5044B1BB1044933
:1001A0000448AFF30080BDE80840CFE7000000003E
:1001B00080000020D42B000880F0004002E000BF47
:1001C00081F0004142001FBF5FEA410392EA030F42
:1001D0007FEA226C7FEA236C6AD04FEA1262D2EB8C
:1001E0001363C1BFD218414048404140B8BF5B4291
:1001F000192B88BF704710F0004F40F4000020F02A
:100200007F4018BF404211F0004F41F4000121F03F
:100210007F4118BF494292EA030F3FD0A2F1010289
:1002200041FA03FC10EB0C00C3F1200301FA03F1C7
:1002300000F0004302D5494260EB4000B0F5000FEA
:1002400013D3B0F1807F06D340084FEA310102F1A9
:100250000102FE2A51D2B1F1004F40EBC25008BF5B
:1002600020F0010040EA03007047490040EB000025
:10027000013A28BFB0F5000FEDD2B0FA80FCACF126
:10028000080CB2EB0C0200FA0CF0AABF00EBC25053
:1002900052421843BCBFD0401843704792F0000F41
:1002A00081F4000106BF80F400000132013BB5E794
:1002B0004FEA41037FEA226C18BF7FEA236C21D00A
:1002C00092EA030F04D092F0000F08BF084670476F
:1002D00090EA010F1CBF0020704712F07F4F04D13D
:1002E000400028BF40F00040704712F100723CBF50
:1002F00000F50000704700F0004343F0FE4040F47A
:10030000000070477FEA226216BF08467FEA236337
:100310000146420206BF5FEA412390EA010F40F422
:10032000800070474FF0000304E000BF10F000436E
:1003300048BF40425FEA000C08BF704743F0964355
:1003400001464FF000001CE050EA010208BF704770
:100350004FF000030AE000BF50EA010208BF7047F7
:1003600011F0004302D5404261EB41015FEA010C0C
:1003700002BF84460146002043F0B64308BFA3F104
:100380008053A3F50003BCFA8CF2083AA3EBC253E6
:1003900010DB01FA02FC634400FA02FCC2F1200205
:1003A000BCF1004F20FA02F243EB020008BF20F03C
:1003B0000100704702F1200201FA02FCC2F12002A2
:1003C00050EA4C0021FA02F243EB020008BF20EA97
:1003D000DC7070474FF0FF0C1CEAD0521EBF1CEAC5
:1003E000D15392EA0C0F93EA0C0F6FD01A4480EAB3
:1003F000010C400218BF5FEA41211ED04FF000639C
:1004000043EA501043EA5111A0FB01310CF00040C7
:10041000B1F5000F3EBF490041EAD3715B0040EAED
:10042000010062F17F02FD2A1DD8B3F1004F40EBBD
:10043000C25008BF20F00100704790F0000F0CF090
:10044000004C08BF49024CEA502040EA51207F3A54
:10045000C2BFD2F1FF0340EAC250704740F400002F
:100460004FF00003013A5DDC12F1190FDCBF00F020
:1004700000407047C2F10002410021FA02F1C2F1CE
:10048000200200FA02FC5FEA310040F1000053EA6A
:100490004C0308BF20EADC70704792F0000F00F0B8
:1004A000004C02BF400010F4000F013AF9D040EABE
:1004B0000C0093F0000F01F0004C02BF490011F452
:1004C000000F013BF9D041EA0C018FE70CEAD15350
:1004D00092EA0C0F18BF93EA0C0F0AD030F0004CD0
:1004E00018BF31F0004CD8D180EA010000F0004084
:1004F000704790F0000F17BF90F0004F084691F042
:10050000000F91F0004F14D092EA0C0F01D142027B
:100510000FD193EA0C0F03D14B0218BF084608D144
:1005200080EA010000F0004040F0FE4040F400008E
:10053000704740F0FE4040F4400070474FF0FF0C21
:100540001CEAD0521EBF1CEAD15392EA0C0F93EA68
:100550000C0F69D0A2EB030280EA010C49024FEABA
:10056000402037D04FF0805343EA111143EA101373
:100570000CF000408B4238BF5B0042F17D024FF42B
:10058000000C8B4224BF5B1A40EA0C00B3EB510F06
:1005900024BFA3EB510340EA5C00B3EB910F24BFEF
:1005A000A3EB910340EA9C00B3EBD10F24BFA3EB74
:1005B000D10340EADC001B0118BF5FEA1C1CE0D13C
:1005C000FD2A3FF650AF8B4240EBC25008BF20F0EF
:1005D000010070470CF0004C4CEA50207F32C2BF43
:1005E000D2F1FF0340EAC250704740F400004FF0E0
:1005F0000003013A37E792F0000F00F0004C02BF11
:10060000400010F4000F013AF9D040EA0C0093F0DA
:10061000000F01F0004C02BF490011F4000F013B34
:10062000F9D041EA0C0195E70CEAD15392EA0C0F9C
:1006300008D142027FF47DAF93EA0C0F7FF470AFD4
:10064000084676E793EA0C0F04D14B023FF44CAF17
:1006500008466EE730F0004C18BF31F0004CCAD1AC
:1006600030F000427FF45CAF31F000437FF43CAFE8
:100670005FE700BF830730B548D0541E002A3FD043
:100680000346CAB201E0013C3AD303F8012B9D07AF
:10069000F9D1032C2DD9CDB245EA05250F2C45EA19
:1006A000054536D9A4F1100222F00F0C03F1200EFB
:1006B000E6444FEA121C03F1100242E9045542E9F4
:1006C000025510327245F8D10CF1010214F00C0FF2
:1006D00003EB021204F00F0C13D0ACF1040323F06F
:1006E00003030433134442F8045B9342FBD10CF040
:1006F00003042CB1CAB21C4403F8012B9C42FBD169
:1007000030BD64461346002CF4D1F9E70346144685
:10071000BFE71A46A446E0E70EB410B5044683B01E
:1007200008B183695BB106AB2046059AA1680193C5
:1007300000F014FA03B0BDE8104003B0704700F0B9
:1007400013F9F0E70FB410B50A4B82B01C680CB176
:10075000A3695BB105AB2046049AA168019300F040
:10076000FDF902B0BDE8104004B07047204600F02B
:10077000FBF8EFE70000002000207047014900F07F
:1007800033B900BFB515000800207047682270B566
:100790004D1E02FB05F50E4605F1740100F048F907
:1007A000044640B100210C30C4E9016005F1680243
:1007B0002160FFF75FFF204670BD00BF274B2DE98A
:1007C000F0411E680746B36953B34FF0040848363A
:1007D000D6E90134013B04D51EE05A1C04F168043B
:1007E0001AD0B4F90C50013B002DF6D11C4B082255
:1007F0002946C4E90055C4E90253C4E904556566B5
:10080000A56104F15C00FFF735FFC4E90D55C4E9AB
:1008100012552046BDE8F08135682DB12E46D7E748
:10082000304600F01FF8D0E74FF4D671384600F09C
:10083000FFF8044668B1056029460546C0F8048003
:100840000C304FF4D072A060FFF714FF34602E46D6
:10085000BEE70C2330603B60DBE700BFEC2B0008F9
:100860000100FFFF0023334A2DE9F0471268C0E979
:1008700012339042036508BF01232F4908BF8361EB
:1008800081620546FFF79AFF034628466B60FFF733
:1008900095FFA86028460024FFF790FF04236E68A8
:1008A000DFF898A0DFF89890DFF89880264FE8608E
:1008B0000822F3602146C6E90044C6E90444746690
:1008C000B460B46106F15C00FFF7D4FE1F4BC6E9CB
:1008D000086AC6E90A983763AE680822F3602146C1
:1008E000C6E90044C6E904447466B460B46106F124
:1008F0005C00FFF7BFFE164BC6E9086AC6E90A9816
:100900003763EE682146F3600822C6E90044C6E971
:1009100004447466B460B46106F15C00FFF7AAFE9B
:100920000123C6E9086AC6E90B87C6F82890AB61BF
:10093000BDE8F087EC2B00087D07000805120008D1
:100940002D1200086D1200088D1200080900010028
:1009500012000200024B0349186800F045B800BFBE
:10096000EC2B0008B5150008836903B97AE77047D6
:10097000704700BF704700BF704700BF704700BF9F
:10098000024B0349186800F00FB800BF00000020B8
:1009900079070008024B0349186800F005B800BF4A
:1009A00000000020890700082DE9F0410026884654
:1009B00000F14807D7E90154013D0ED4A389013D58
:1009C000012B06D9B4F90E30013302D02046C047BE
:1009D00006436B1C04F16804F0D13F68002FE9D195
:1009E0003046BDE8F08100BF2DE9F8434FF0000923
:1009F0000746884600F14806D6E90154013D10D467
:100A0000A389013D012B08D9B4F90E30013304D07C
:100A100021463846C04749EA00096B1C04F16804C6
:100A2000EED13668002EE7D14846BDE8F88300BF16
:100A3000F8B5CD1C25F0030508350C2D38BF0C2565
:100A4000002D064623DBA94221D8264F01F072F97A
:100A50003A6822B3144603E063682246FBB11C46A1
:100A600023685B1BF8D40B2B15D8636894420CBF2A
:100A70003B605360304601F05FF904F10B00231D29
:100A800020F00700C21A01D01B1AA350F8BD0C2396
:100A900000203360F8BD23601C442560EAE77968D4
:100AA000D1B12946304600F09BFB431C01460CD0D7
:100AB000C41C24F00304A04205D03046611A00F0A3
:100AC0008FFB013001D02560D4E70C233046336022
:100AD00001F032F90020F8BD304600F081FB78606B
:100AE000DFE700BF980000209368013B002B936074
:100AF00005DAD2F818C0634507DB0A2905D0136868
:100B0000581C106008461970704700F0C3BB00BF46
:100B10009BB1F8B5134406460F46541E5D1E01E016
:100B2000AC4208D03A46304614F8011FFFF7DCFF0C
:100B3000431CF5D1F8BD0020F8BD0020704700BF70
:100B4000936810B5144613B91846536010BD00F0F1
:100B50009BFD0023C4E9013310BD00BF2DE9F04F18
:100B60000E4692461C4607469FB018B18369002B7B
:100B700000F0A880954B9E4200F0AA80944B9E42C4
:100B800000F0B580934B9E4208BFFE68B3891807FA
:100B900040F1A3803369002B00F09F8000232022C6
:100BA0000B9330239AF80010059401258A4C8DF898
:100BB00031208DF8323000297DD0D1460B4604E03B
:100BC00019F8013F002B00F09480252BF8D1B9EBE8
:100BD0000A0B40F0918099F80030002B6BD0002375
:100BE0004FF0FF3209F10109CDE90723069309937C
:100BF0008DF85B301C9304E0001B05FA00F01843ED
:100C00000690CA460522204619F8011B00F058FF3D
:100C1000069B0028F0D1D90644BF20228DF85B2026
:100C20001A0748BF2B229AF8001048BF8DF85B20A6
:100C30002A2972D1059A1168043200290592C0F25E
:100C4000A08009919AF801100AF1010A2E2976D0A4
:100C5000DFF888910322484600F032FF48B1402275
:100C6000069BA0EB090002FA00F003430AF1010A17
:100C700006931AF8011B062259488DF8301000F02F
:100C80001FFF002800F08380564B002B6CD005A975
:100C9000009132463846544B06A9AFF300800390CA
:100CA000039B013307D00B9B039A9AF8001013445F
:100CB0000B93002981D1B3895B0615D40B981FB023
:100CC000BDE8F08FFFF750FE404B9E427FF456AFD9
:100CD0007E68B38918073FF55DAF3146384600F0AE
:100CE00051FB00283FF45AAF4FF0FF30E7E7BE68F2
:100CF0004CE7B9EB0A0BDED0D046CAF1010A03E09B
:100D0000934538D918F8011F32463846FFF7ECFEF4
:100D100001300AEB0802F3D1CDE7A1F13002092A34
:100D200094D8099B1AF8011F03EB830302EB4303DA
:100D3000A1F13002092AF5D92E29099388D19AF810
:100D400001102A292DD1059B0AF102001A680433EB
:100D5000002A0593B8BF4FF0FF339AF802100792AC
:100D60008246B8BF079373E7059B073323F0070359
:100D70000833059397E70B9A99F800305A440B9281
:100D80002BE7494243F00203099106935AE705A96C
:100D9000009132463846144B06A900F0CBF8039078
:100DA0007EE70023A1F13002092A0AF1010A079324
:100DB0003FF64EAF1AF8011F03EB830302EB430328
:100DC000A1F13002092AF5D9079341E7302C000838
:100DD000102C0008F02B0008782C0008802C00084C
:100DE000842C000800000000110B00088C4600B5A0
:100DF00086461346034A714610685DF804EB624666
:100E0000FFF7ACBE000000202DE9F04791461E46DA
:100E10000A698B680C469A42B8BF1A46C9F8002086
:100E200091F843300546DDF8208013B10132C9F84E
:100E30000020226891065DD5D9F800300233C9F848
:100E40000030226812F0060F11461ED1E168CB1A5D
:100E5000002BD8BF114618DD002704F1190A06E05F
:100E6000D9F80030E268A2EB030CBC450CDD01238D
:100E7000524631462846C047013007F10107EFD1FD
:100E80004FF0FF30BDE8F087216894F84330003B15
:100E900018BF01238A060AD53021E21882F84310D0
:100EA00094F845105A1C2244023382F8431031460C
:100EB000284604F14302C0470130E1D0236803F023
:100EC0000603042B1DD0A3682269934225DD002769
:100ED0009B1A1F4404F11A09002401E0BC421CDAE9
:100EE00001234A4631462846C047013004F1010437
:100EF000F4D1C5E712F0060F12D0003B18BF012352
:100F0000D5E7D9F80030E1682269C91AA36821EA57
:100F1000E1779342DCDC0029DCDC0020BDE8F087CF
:100F2000E168D9F80030CB1A002BD8BF114693DC0A
:100F3000ABE700BF2DE9F04317460A7E85B00C46AB
:100F4000064698460C9D01F1430C002A33D0A2F1CD
:100F50005803D9B2202967D8202B65D8DFE813F0D1
:100F6000DD006400640064006400640064006400E8
:100F7000640064006400A3006E0064006400640008
:100F800064006E00640064006400640021007F005F
:100F9000BF0064006400AE0064007F006400640071
:100FA000E40023681A0640F102812B686269191D6A
:100FB00029601B681A600023E14623613B462146F5
:100FC0003046CDF8008003AAFFF71EFF013020D085
:100FD0004A46394630462369C047013019D0236854
:100FE000E0689B07039919D5431A002B16DD0025ED
:100FF00004F1190904E0E0680399431AAB420DDDDE
:1010000001234A4639463046C047013005F1010503
:10101000F1D14FF0FF3005B0BDE8F0838842B8BF92
:10102000084605B0BDE8F083012384F8422004F1AE
:1010300042092361002384F84330BFE7236819067F
:1010400002D45A0600F1BF8029680A680431296079
:101050001146002A6ADB0A25DFF87CE110E02368EC
:10106000180640F19A802B68191D296019686F2AAB
:101070000CBF08250A25DFF860E1002384F843301F
:101080006268002AA2607DDB236823F004032360EA
:10109000002959D1002A77D1E146082D63D0ACEB65
:1010A000090323618AE701222B6804F142091968C8
:1010B00004332B6084F842102261BBE72B680021C7
:1010C0001A1D2A60D3F800906268484600F0F8FCC8
:1010D00000287FD0A0EB090060602061AAE72368A8
:1010E00043F0200323607822DFF8F0E084F8452005
:1010F0002A68111D2960190642D45D0640D5118861
:10110000D80744BF43F020032360002943D123685C
:10111000102523F020032360AFE75823DFF8B8E061
:1011200084F845302368E3E72368DCE72D2284F860
:10113000432062684942002AA26002DB23F00403D4
:1011400023600A25DFF890E0E146B1FBF5F30A469B
:1011500005FB131019461EF80030AA4209F8013D9C
:10116000F3D2082D9BD12368D90798D562682369EB
:101170009A4294DC302309F1FF3989F800308EE778
:101180001168BDE70029DFD19EF8003004F1420963
:1011900084F8423081E710256FE713F0400F2B6889
:1011A00003F1040129600CBF196819885FE713F087
:1011B000400F2B68626903F1040129601B6814BFAA
:1011C0001A801A60F7E62A68B2F9001004322A6021
:1011D0000A463EE7606880E78C2C0008A02C0008D7
:1011E000002238B5064D044608462A6000F0A2FEEB
:1011F000431C00D038BD2B68002BFBD0236038BDCA
:10120000A000002010B50C46B1F90E1000F024FE2D
:10121000002803DB636D0344636510BDA38923F4D9
:101220008053A38110BD00BF002070472DE9F0411D
:101230000C46B1F90C101F46CB05054616460BD4DB
:1012400021F48051A1813B4632462846B4F90E1064
:10125000BDE8F04100F080B8B4F90E10022300227E
:1012600000F08AFBB4F90C10EAE700BF10B50C4699
:10127000B1F90E1000F080FBA389421C0EBF23F4CD
:10128000805343F480536065A38110BDB1F90E1003
:1012900000F0FAB8F8B506460D46144608B1836961
:1012A00043B3254B9C422AD0244B9C4229D0244B4B
:1012B0009C4208BFF468A269A389A2601A0722D5DC
:1012C000236903B322686169D31AEDB299422F46AC
:1012D00029DD0133A1680139A160511C216015701D
:1012E00062699A4216D0A389DB0701D50A2D11D075
:1012F0003846F8BDFFF738FB0F4B9C42D4D17468D9
:10130000D9E7B468D7E72146304600F03BF838B952
:101310002369D7E72146304600F04CF90028E7D092
:101320004FF0FF37E4E72146304600F043F900284C
:10133000F6D101232268CDE7302C0008102C0008DC
:10134000F02B000803460A46024908681946FFF7D1
:10135000A1BF00BF0000002038B50C461146002296
:101360008446074D20462A601A46644600F0F0FD88
:10137000431C00D038BD2B68002BFBD0236038BD48
:10138000A00000203C4B70B51D6806460C460DB110
:10139000AB69E3B1394B9C421FD0394B9C424DD0D5
:1013A000384B9C4208BFEC68B4F90C3018079AB26D
:1013B00019D5216911B312F001002FD00025606901
:1013C000A5604042A06100292ED0002070BD2846B3
:1013D000FFF7CAFA294B9C42DFD16C68B4F90C3094
:1013E00018079AB2E5D4D1063ED5520728D4216910
:1013F00043F00803A3819AB20029DCD102F42070E3
:10140000B0F5007FD7D02146304600F0CBFAB4F9D2
:101410000C3021699AB212F00100CFD1950758BF64
:101420006069A0600029D0D1120658BF0846CDD50A
:1014300043F040034FF0FF30A38170BDAC68B3E7C9
:10144000616B51B104F14402914204D0304600F086
:1014500075FCB4F90C30002262630022216923F08C
:101460002403C4E90012C3E7092243F040033260B9
:101470004FF0FF30A38170BD00000020302C000829
:10148000102C0008F02B0008002238B5064D044649
:1014900008462A6000F026FD431C00D038BD2B68AA
:1014A000002BFBD0236038BDA0000020F8B58B894D
:1014B0000C46190707463BD46268002A55DDE66AE8
:1014C000002E50D000223D683A6013F4805250D173
:1014D00001233846216AB047421C5CD0A389E66AE2
:1014E0005B0705D56368C01A636B0BB1236CC01A28
:1014F0000246216A00233846B047411C3BD13B6875
:10150000002B38D01D2B01D0162B4BD10023226984
:10151000C4E90023616B3D6029B304F1440399429F
:1015200002D0384600F00AFC002318466363F8BD79
:101530002669C6B19A0718BF0023256808BF6369EA
:101540002660AD1BA3600CE02B463246D4F828C0C1
:101550003846216AE047B0F1000CA5EB0C05664463
:1015600012DD002DF0DC0020F8BD226C002AA6DC84
:10157000F9E7606DB4E70022236962602360A38904
:10158000DB04C7D56065C5E7A3894FF0FF3043F0A2
:101590004003A381F8BD3B68002B9FD01D2B06D0D4
:1015A000162B04D0A38943F04003A381F8BD00208B
:1015B0003D60F8BD38B50B69BBB10C46054608B1B6
:1015C0008369B3B10D4B9C4211D00D4B9C4213D09B
:1015D0000C4B9C4208BFEC68B4F90C302BB121468F
:1015E0002846BDE83840FFF761BF002038BD6C6871
:1015F000F2E7FFF7B9F9E5E7AC68EDE7302C000852
:10160000102C0008F02B000838B540B303690446DD
:10161000E3B1174B1D680DB1AB69CBB1154B9C42C3
:101620000FD0154B9C4221D0144B9C4208BFEC6854
:10163000B4F90C3053B121462846BDE83840FFF7D5
:1016400035BF6C68B4F90C30002BF4D1002038BDE4
:101650002846FFF789F9074B9C42E2D1F1E7084B96
:1016600008491868BDE83840FFF7BEB9AC68DFE745
:1016700000000020302C0008102C0008F02B00087F
:10168000EC2B0008B51500089368002B00F0B7801C
:101690002DE9F04FB1F90C300C461907804617467A
:1016A00083B098B225D523691BB310F002033D68BF
:1016B0002DD04FF0000B5E46DFF8B8A2002E00F0F0
:1016C0008B80564533465A4628BF53464046216ACA
:1016D000D4F828C0E047002840F38780BB688344E3
:1016E0001B1A361ABB60002BE8D1002003B0BDE8FE
:1016F000F08F21464046FFF745FE002840F0368136
:10170000B4F90C303D6898B210F00203D1D110F05A
:10171000010976D14E46002E5AD08205D4F808B081
:1017200040F1B580B3455A4600F2CD8010F4906F79
:1017300000F0CB8023682169A3EB010B636903EB05
:10174000430A0AEBDA7A0BF101034FEA6A0A3344DF
:101750005345524684BF9A465246430540F1EA80BB
:1017600011464046FFF764F9002800F0F9805A4618
:101770002169019000F0ECF9A289019B22F49062AA
:1017800042F08002A28103EB0B0023613246AAEBF8
:101790000B03B346C4F814A0A3602060B246002631
:1017A0004946019200F04AFAA3682168019AA3EB26
:1017B0000B030A44A3602260B868D144A0EB0A007E
:1017C000B860002891D0B4F90C0080B2002EA4D1EA
:1017D000D5E9009608359EE7D5E900B608356DE7EE
:1017E00021464046FFF7E6FE80B3B4F90C304FF0D7
:1017F000FF3043F04003A38103B0BDE8F08F002029
:1018000070471E46AA46994618461D4656B30028FC
:1018100032D04A4620682169B24228BF3246884207
:10182000636904D9A16803EB010B5A4574DC934248
:1018300065DC2A464046216AD4F828C0E047B0F16A
:10184000000BD2DDB9EB0B09CAD00120BB685D44A7
:10185000A3EB0B03A6EB0B06BB60002B3FF445AFDD
:10186000002ED4D10AF1080353F8046C9A4653F8B9
:10187000085C0833002EF7D032460A21284600F0D3
:101880001FF9002869D00130A0EB0509C1E72068E5
:10189000236998421BD86369B34218D86FF0004C93
:1018A000B44528BFB4469CFBF3FC4A4603FB0CF34B
:1018B0004046216AD4F828C0E047B0F1000A94DD20
:1018C000A6EB0A0678E7B3463246206866E7B345DA
:1018D000DA4628BFB2464946524600F0AFF9A3683F
:1018E0002268A3EB0A035244A3602260002BE7D1D5
:1018F00021464046FFF75EFE0028E1D075E7294605
:101900009346019200F09AF9A368019A9B1AA3608A
:1019100023681A44226095E729465A4600F08EF95A
:10192000236821465B4440462360FFF743FE0028BE
:1019300088D05AE7404600F067FA034600287FF453
:1019400022AF4046216900F0F9F90C22B4F90C30BD
:10195000C8F8002023F0800349E7721C914659E73C
:101960000C22B4F90C30C8F8002040E74FF0FF30EB
:10197000BCE600BF00FCFF7F38B50C4611460022D4
:101980008446074D20462A601A46644600F0C2FA93
:10199000431C00D038BD2B68002BFBD0236038BD22
:1019A000A0000020F0B58B890C46990797B007D5A9
:1019B000012204F14703C4E90432236017B0F0BDEB
:1019C000B4F90E10054600292DDB6A4600F05AFADC
:1019D000002827DB019E4FF4806706F47046A6F5C9
:1019E0000056B6FA86F6394628467609FFF720F8FB
:1019F00030B3A3891A4A43F08003AA62C4E90407FA
:101A0000A3812060002ED9D02846B4F90E1000F032
:101A10004DFA0028D2D0A38923F0030343F0010339
:101A2000A381CBE7A38913F0800F14BF40274FF4A5
:101A30008067284639460026FEF7FAFF0028D8D1ED
:101A4000B4F90C309A05B9D4012123F0030304F151
:101A5000470243F00203C4E90421A3812260ADE7F9
:101A60007D07000870B50C46B1F90E101646002926
:101A70001D4696B013DB6A4600F004FA00280EDB20
:101A800001994FF4806301F47041A1F50051B1FA5E
:101A900081F1002049092960336016B070BD002231
:101AA000B4F90C302A601B0604D5402300203360B3
:101AB00016B070BD4FF480630020336016B070BD67
:101AC0005FFA81FC810710D00346511E2AB90AE053
:101AD0009A0718460AD0013905D3184613F8012B86
:101AE0006245F5D1704700207047114603290CD894
:101AF0000029F8D00346014401E08B42F3D0184698
:101B000013F8012B6245F8D1ECE7024610B54CEA18
:101B10000C2444EA04441046036804326340A3F1F1
:101B2000013E2EEA030313F0803F04D10439032958
:101B30001046F0D851B10346014401E08B4205D074
:101B4000184613F8012B6245F8D110BD002010BDD6
:101B5000844641EA000313F0030349D1403A23D3FA
:101B60000B6803604B6843608B688360CB68C3601D
:101B70000B6903614B6943618B698361CB69C36105
:101B80000B6A03624B6A43628B6A8362CB6AC362ED
:101B90000B6B03634B6B43638B6B8363CB6BC363D5
:101BA00040304031403ADBD230320BD30B68036017
:101BB0004B6843608B688360CB68C3601030103122
:101BC000103AF3D20C3205D351F8043B40F8043BF1
:101BD000043AF9D2043208D0D2071CBF11F8013BF5
:101BE00000F8013B01D30B8803806046704700BFBB
:101BF000082A13D38B07B1D010F00303AED0C3F182
:101C00000403D21ADB071CBF11F8013B00F8013BAB
:101C1000A4D331F8023B20F8023B9FE7043AD9D322
:101C2000013A11F8013B00F8013BF9D20B7803703F
:101C30004B7843708B7883706046704788420DD92B
:101C40008B1883420AD900EB020CBAB1624613F832
:101C500001CD994202F801CDF9D170470F2A0ED873
:101C6000034602F1FF3C4AB10CF1010C013B8C44EC
:101C700011F8012B614503F8012FF9D1704740EAB3
:101C800001039B074FD1A2F1100370B501F1200CA5
:101C900023F00F0501F1100E00F11004AC441B09F4
:101CA0005EF8105C0EF1100E44F8105C5EF81C5CDF
:101CB000103444F81C5C5EF8185C44F8185C5EF85C
:101CC000145CE64544F8145CEAD1013312F00C0FC1
:101CD00001EB031102F00F0400EB031327D08E4633
:101CE000043C24F003064FEA940C1E441C1F5EF8CB
:101CF000045B44F8045FB442F9D10CF1010402F032
:101D0000030203EB840301EB840102F1FF3C4AB1BF
:101D10000CF1010C013B8C4411F8012B614503F8D7
:101D2000012FF9D170BD034602F1FF3C9CE722462A
:101D3000EBE700BF704700BF704700BF002952D0DB
:101D400038B551F8043C0C1F002BB8BFE418054609
:101D5000FFF7F0FF2B4A1368002B45D0A3420CD9A4
:101D600021686018834228D0636028461460BDE86B
:101D70003840FFF7E1BFA3420FD81A465B68002B3B
:101D8000F9D11168501884421DD034D36360546077
:101D90002846BDE83840FFF7CFBF11685018A04271
:101DA00015D028D8216860188342EFD118685B6885
:101DB0000144C4E900135460EAE718685B68014411
:101DC000C4E90013D1E7236819441160E0E72068F3
:101DD0000144501883421160DAD1D3E90003014471
:101DE000C2E90013D4E77047284663601460BDE879
:101DF0003840FFF7A1BF0C2328462B60BDE83840D0
:101E0000FFF79ABF98000020F8B51446F9B1CAB19F
:101E100006460D4600F05CF8A04202D32F46384635
:101E2000F8BD21463046FEF703FE07460028F6D0EF
:101E300022462946FFF78CFE30462946FFF77EFFF3
:101E40003846F8BD2746FFF779FF3846F8BD1146FA
:101E5000BDE8F840FEF7ECBD38B50C46114600224F
:101E60008446074D20462A601A46644600F05AF818
:101E7000431C00D038BD2B68002BFBD0236038BD3D
:101E8000A000002070B50026074D04460846114604
:101E90002E6000F02FF8431C00D070BD2B68002B83
:101EA000FBD0236070BD00BFA0000020002238B529
:101EB000064D044608462A6000F024F8431C00D072
:101EC00038BD2B68002BFBD0236038BDA00000205C
:101ED00051F8040C0028A0F10400BCBF0B58C01836
:101EE000704700BF5822024B4FF0FF301A60704716
:101EF000A00000205822024B4FF0FF301A607047BC
:101F0000A00000205822024B00201A60704700BF3A
:101F1000A00000205822024B4FF0FF301A6070479B
:101F2000A00000205822024B4FF0FF301A6070478B
:101F3000A0000020044A05491368002B08BF0B4687
:101F40001844106018467047A4000020F0000020DC
:101F50005822024B4FF0FF301A607047A00000205B
:101F6000704700BFFEE700BFFEE700BFFEE700BF0F
:101F7000FEE700BF704700BF704700BF704700BF5B
:101F8000704700BF10B400204FF41F04394A3A4B89
:101F9000116883B041F00101116051680B4053603A
:101FA000136823F0847323F480331360136823F4DD
:101FB00080231360536823F4FE0353609460009001
:101FC0000190136843F48033136003E0009BB3F582
:101FD000A06F09D0136803F400330193009B013311
:101FE0000093019B002BF1D0224B1B6813F40033AC
:101FF00018BF01230193019B012B06D04FF0006213
:102000001E4B9A6003B010BC70471D4A194B1168F3
:1020100041F010011160116821F003011160116895
:1020200041F0020111605A685A605A685A605A6851
:1020300042F480625A605A6822F47C125A605A68EC
:1020400042F4E8125A601A6842F080721A601A6804
:102050009201FCD55968074A21F00301596059687B
:1020600041F002015960536803F00C03082BFAD1C8
:10207000C4E700BF001002400000FFF800ED00E0E0
:1020800000200240002108B5054B202205481970A8
:10209000FEF7F0FABDE808400348FEF753BB00BF67
:1020A000C8000020A8000020502C00080D2817D0E0
:1020B0000A2810B508D00E4C23781E2B0DD80D4AD7
:1020C000591CD054217010BD0020094C094B2178B7
:1020D000094A58541968914203D00023237010BD57
:1020E00070479B886F2BF8D10448FEF72BFBF4E771
:1020F000C8000020A800002068656C6C702C0008E7
:1021000008B500F0DBF84FF4A06000F0F5F94FF4EB
:10211000E13000F00DF900F0A9F8FFF7B3FF01235B
:10212000084C094AC4F89431C2F89431D4F8943177
:10213000C820B3FA83F35B09C4F8943100F0DCF8EB
:10214000F4E700BF00802142000023422DE9F04F58
:10215000DFF8F090DFF8F0803C4F3D4E3D4C3E4DB7
:1021600089B000213D4800F061FA034603AA3B48CC
:10217000002B64D0002100F00BFA9DF81430002BE6
:10218000EFD19DF81630072BEBD90122DFF8D0A054
:102190009DF81B109DF81AB08AF80020BDF81800B1
:1021A0000A0209099DF8173041EA0B1B9DF81C1023
:1021B00040BA02F470620A4380B2190903F00F03B7
:1021C00001928AF802108AF80130FEF7ABF849460E
:1021D000FEF700F94146FEF7B1F93946FDF7F0FF89
:1021E00003465846CAF80430FEF79CF83146FEF71D
:1021F000F1F82146FEF7A2F92946FDF7E1FF034673
:10220000019ACAF808301046FEF78CF81549FEF717
:10221000E1F82146FEF792F91349FDF7D1FF9DF849
:102220001E309DF81D20CAF80C008AF810208AF88C
:102230001130DAF814300133CAF8143091E709B0DC
:10224000BDE8F08F0000C84100FF7F470000484113
:102250000000704200F07F450000F0410064004043
:10226000CC0000200000A0410000204170B50121F9
:1022700082B0482000F0C4FB202441F203030D4E3D
:102280000D4D304601A9ADF80630ADF8044000F020
:10229000D9F92146304600F069FB284601A9ADF87E
:1022A000044000F0CFF92146284600F05FFB02B061
:1022B00070BD00BF000C0140001801406FF0040029
:1022C00008B500F059F9084B084A1B680848A2FBFA
:1022D0000323C3F34753C3EB4312064903EB8202C4
:1022E000D20003700A8008BD6400002083DE1B4317
:1022F000E6000020E40000204FF0E02200210B4B1C
:102300001B8800FB03F353619161136943F00103E0
:102310001361136903F00113012BFAD00021136933
:1023200023F0010313619161704700BFE4000020B6
:1023300001212DE9F04F0C4687B0824644F20C0093
:1023400000F05EFB21464FF4C02000F065FB41F633
:1023500003074FF4007304254FF4806B424E694627
:102360003046ADF80030ADF8027000F06BF9694608
:1023700030468DF80350ADF800B000F063F93B4BE8
:102380000DEB0500019300F0C1F8394B0DEB050092
:10239000019300F0BBF8374B0DEB0500019300F003
:1023A000B5F800234FF44022DFF8CC9002A948464C
:1023B000ADF8143003930492CDF808A000F038FB78
:1023C0002246484640F2255100F09CFB48462146F3
:1023D00000F08AFB69463046ADF80050ADF8027057
:1023E00000F030F90823DFF8948030466946ADF8F4
:1023F00000308DF8035000F025F9404602A900F0A6
:1024000017FB2246404640F2255100F07BFB404638
:10241000214600F069FB5E44194B694630461C704A
:10242000ADF800B0ADF8027000F00CF94FF40063A5
:102430008DF80350134D69463046ADF8003000F07A
:1024400001F9284602A900F0F3FA2246284640F294
:10245000255100F057FB2146284600F045FB0A4B6A
:102460001C7007B0BDE8F08F000801402503030190
:102470002603020127030101003801400044004007
:10248000E700002000480040E800002008B540F2C6
:102490002551064800F054FB00B908BD034800F080
:1024A0004BFBBDE80840C0B2FFF700BE003801405A
:1024B00008B540F22551064800F042FB00B908BDBE
:1024C000034800F039FBBDE80840C0B2FFF7EEBD9D
:1024D0000048004008B540F22551064800F030FBA6
:1024E00000B908BD034800F027FBBDE80840C0B2B2
:1024F000FFF7DCBD00440040034B40F0BF6040F4F8
:102500000030D860704700BF00ED00E0C37813B31F
:10251000174A30B5D1684FF0010EC9430F238278B6
:1025200090F801C00078C1F3022100F01F040EFAF8
:1025300004F4CB40C1F1040E13400CFA0EFC0D4D17
:1025400043EA0C031B012A18DBB2400982F800336E
:1025500045F8204030BD0121037806485A0903F0B0
:102560001F03203201FA03F340F82230704700BF06
:1025700000ED00E000E100E04FF0E02213690428E4
:102580000CBF43F0040323F004031361704700BF42
:1025900000EB011C10B4DCF8B0410B0104F00404A2
:1025A0001472BCBBDCF8B041640D1460DCF8B041BF
:1025B000034404F002045472DCF8B44104F00F0444
:1025C0009472DCF8B441240AD474D3F8B841D472BC
:1025D000D3F8B841240A1473D3F8B841240C5473C7
:1025E000D3F8B841240E9473D3F8BC41D473D3F814
:1025F000BC41240A1474D3F8BC41240C5474D3F89D
:10260000BC311B0E937451B9C36810BC43F0200356
:10261000C3607047DCF8B041E4085460C6E7036962
:1026200010BC43F020030361704700BF19B9C068B4
:1026300000F003007047012906BF006900F00300A5
:102640000020704700B591F803C01CF0100F18BFB0
:102650008B780CF00F0E18BF4EEA030E0B88DAB21F
:10266000002A36D0BCF1480F026800F0B380BCF1FC
:10267000280F00F03A81D90744BF22F00F024EEA3A
:102680000202990744BF22F0F00242EA0E125907F3
:1026900044BF22F4706242EA0E22190744BF22F4BA
:1026A000704242EA0E32D90644BF22F4702242EA56
:1026B0000E42990644BF22F4700242EA0E525906B5
:1026C00044BF22F0706242EA0E62190600F10A81EC
:1026D0000260FF2B4AD9BCF1480F426848D1D905A6
:1026E00006D54FF4807122F00F024EEA020201611A
:1026F000990506D54FF4007122F0F00242EA0E125D
:102700000161590506D54FF4806122F4706242EAF6
:102710000E220161190506D54FF4006122F47042C2
:1027200042EA0E320161D90406D54FF4805122F4F9
:10273000702242EA0E420161990406D54FF400511D
:1027400022F4700242EA0E520161590406D54FF498
:10275000804122F0706242EA0E6201611B0404D5DE
:102760004FF400436EF31F72036142605DF804FB97
:10277000BCF1280F6ED0D90544BF22F00F024EEAFB
:102780000202990544BF22F0F00242EA0E125905F6
:1027900044BF22F4706242EA0E22190544BF22F4BB
:1027A000704242EA0E32D90444BF22F4702242EA57
:1027B0000E42990444BF22F4700242EA0E525904B8
:1027C00044BF22F0706242EA0E621B04CDD56EF364
:1027D0001F72CAE7D90705D5012122F00F024EEA80
:1027E00002020161990705D5022122F0F00242EAB6
:1027F0000E120161590705D5042122F4706242EAE4
:102800000E220161190705D5082122F4704242EA1F
:102810000E320161D90605D5102122F4702242EA58
:102820000E420161990605D5202122F4700242EA88
:102830000E520161590605D5402122F0706242EA2C
:102840000E62016119067FF543AF80216EF31F729E
:1028500001613DE7D90506D54FF4807122F00F02E2
:102860004EEA02024161990506D54FF4007122F04B
:10287000F00242EA0E124161590506D54FF480611B
:1028800022F4706242EA0E224161190506D54FF426
:10289000006122F4704242EA0E324161D90406D549
:1028A0004FF4805122F4702242EA0E4241619904B1
:1028B00006D54FF4005122F4700242EA0E524161F3
:1028C000590406D54FF4804122F0706242EA0E624C
:1028D00041611B047FF549AF4FF400436EF31F7253
:1028E000436142E76EF31F72F2E6D90705D5012175
:1028F00022F00F024EEA02024161990705D502213A
:1029000022F0F00242EA0E124161590705D5042176
:1029100022F4706242EA0E224161190705D50821AE
:1029200022F4704242EA0E324161D90605D51021E7
:1029300022F4702242EA0E424161990605D5202117
:1029400022F4700242EA0E524161590605D5402137
:1029500022F0706242EA0E62416119067FF5B8AE5C
:1029600080216EF31F724161B2E600BF01617047C2
:102970001E4A10B4536803F00C03082B21D01C4AE4
:1029800013460260194A1B4C5168C1F30311615C84
:10299000CB4043605168C1F30221615C23FA01F12D
:1029A00081605168C1F3C221645C1349E340C36094
:1029B000526810BCC2F381328A5CB3FBF2F303614C
:1029C000704753685168C3F38343C90303F102039B
:1029D00007D55268920304D4054A02FB03F303604F
:1029E000D0E7064A02FB03F30360CBE70010024086
:1029F00000127A006C0000206800002000093D00F1
:102A0000044A936911B118439061704723EA0000AA
:102A10009061704700100240044AD36911B1184315
:102A2000D061704723EA0000D06170470010024077
:102A300030B504460D46238ACA889BB223F440531E
:102A400013438A892382A389898823F4B05323F00E
:102A50000C031B041B0C0B43298987B00B436989AA
:102A600001A80B439BB2A381A38A9BB223F44073BA
:102A70001343A382FFF77CFFDDE9033218491948AD
:102A80008C4208BF1346A28903EB830312F4004F64
:102A90002A6803EB830314BF52009200B3FBF2F3E6
:102AA0006425A0FB0321490905FB11330A01A18913
:102AB00009040AD41B013233A0FB0313C3F34313ED
:102AC00013439BB2238107B030BDDB003233A0FB40
:102AD0000313C3F3421313439BB2238107B030BDEA
:102AE000003801401F85EB51838921B19BB243F42B
:102AF00000538381704723F400531B041B0C838114
:102B0000704700BF012301F01F0CC1F342110129DE
:102B100003FA0CF30DD002290CBF103014301AB197
:102B20000268134303607047026822EA03030360EC
:102B300070470C30F3E700BF8088C0F3080070478F
:102B40000123C1F3421201F01F0C012A03FA0CF316
:102B500013D0022A0CBF028A828A92B213400288E2
:102B600092B243B10123090A03FA01F10A4214BFE8
:102B700018460020704718467047828992B2134069
:102B8000EDE700BF0C4885460C480D490D4A00236F
:102B900002E0D458C4500433C4188C42F9D30A4A12
:102BA0000A4C002301E013600432A242FBD3FFF77A
:102BB000E9F9FFF7A5FA70470000012000000020A6
:102BC0007C000020BC2C00087C000020EC000020D1
:102BD000FEE70000F8B500BFF8BC08BC9E46704791
:0C2BE000F8B500BFF8BC08BC9E4670476A
:102BEC0004000020000000000000000000000000B5
:102BFC0000000000000000000000000000000000C9
:102C0C0000000000000000000000000000000000B8
:102C1C0000000000000000000000000000000000A8
:102C2C000000000000000000000000000000000098
:102C3C000000000000000000000000000000000088
:102C4C000000000048454C4C4F5F41434B206170E5
:102C5C00702072656164795C725C6E0068656C6C86
:102C6C006F00000061636B5C725C6E00232D302B77
:102C7C0020000000686C4C00656667454647000004
:102C8C003031323334353637383941424344454696
:102C9C000000000030313233343536373839616258
:082CAC0063646566000000008E
:042CB400990100087A
:042CB800710100089E
:102CBC000400002000000000302C0008102C00083C
:102CCC00F02B0008000000000000000000000000D5
:102CDC0000000000000000000000000000000000E8
:102CEC0000000000000000000000000000000000D8
:102CFC0000000000000000000000000000000000C8
:102D0C0000000000000000000000000000000000B7
:102D1C000000000000A24A040204060800000000A3
:0C2D2C0001020304010203040607080969
:0400000508002B853F
:00000001FF
