:020000040800F2
:100000000000012031160008AD070008B107000804
:10001000B5070008B9070008BD0700080000000088
:10002000000000000000000000000000C107000800
:10003000C507000800000000C9070008CD07000838
:100040007D1600087D1600087D1600087D16000844
:100050007D1600087D1600087D1600087D16000834
:100060007D1600087D1600087D1600087D16000824
:100070007D1600087D1600087D1600087D16000814
:100080007D1600087D1600087D1600087D16000804
:100090007D1600087D1600087D1600087D160008F4
:1000A0007D1600087D1600087D1600087D160008E4
:1000B0007D1600087D1600087D1600087D160008D4
:1000C0007D1600087D1600087D1600087D160008C4
:1000D0007D160008310E00087D1600087D16000808
:1000E0007D1600087D1600087D1600087D160008A4
:1000F0007D1600087D1600087D1600087D16000894
:100100007D1600087D1600087D1600087D16000883
:100110007D1600087D1600087D1600087D16000873
:100120007D1600087D1600087D1600087D16000863
:100130000348044B834202D0034B03B11847704776
:100140001C0000201C00002000000000054806499B
:100150000B1AD90F01EBA301491002D0034B03B1D5
:10016000184770471C0000201C0000200000000001
:1001700010B5064C237843B9FFF7DAFF044B13B1EF
:100180000448AFF300800123237010BD1C00002041
:10019000000000008016000808B5044B1BB104499C
:1001A0000448AFF30080BDE80840CFE7000000003E
:1001B000200000208016000880F0004002E000BF10
:1001C00081F0004142001FBF5FEA410392EA030F42
:1001D0007FEA226C7FEA236C6AD04FEA1262D2EB8C
:1001E0001363C1BFD218414048404140B8BF5B4291
:1001F000192B88BF704710F0004F40F4000020F02A
:100200007F4018BF404211F0004F41F4000121F03F
:100210007F4118BF494292EA030F3FD0A2F1010289
:1002200041FA03FC10EB0C00C3F1200301FA03F1C7
:1002300000F0004302D5494260EB4000B0F5000FEA
:1002400013D3B0F1807F06D340084FEA310102F1A9
:100250000102FE2A51D2B1F1004F40EBC25008BF5B
:1002600020F0010040EA03007047490040EB000025
:10027000013A28BFB0F5000FEDD2B0FA80FCACF126
:10028000080CB2EB0C0200FA0CF0AABF00EBC25053
:1002900052421843BCBFD0401843704792F0000F41
:1002A00081F4000106BF80F400000132013BB5E794
:1002B0004FEA41037FEA226C18BF7FEA236C21D00A
:1002C00092EA030F04D092F0000F08BF084670476F
:1002D00090EA010F1CBF0020704712F07F4F04D13D
:1002E000400028BF40F00040704712F100723CBF50
:1002F00000F50000704700F0004343F0FE4040F47A
:10030000000070477FEA226216BF08467FEA236337
:100310000146420206BF5FEA412390EA010F40F422
:10032000800070474FF0000304E000BF10F000436E
:1003300048BF40425FEA000C08BF704743F0964355
:1003400001464FF000001CE050EA010208BF704770
:100350004FF000030AE000BF50EA010208BF7047F7
:1003600011F0004302D5404261EB41015FEA010C0C
:1003700002BF84460146002043F0B64308BFA3F104
:100380008053A3F50003BCFA8CF2083AA3EBC253E6
:1003900010DB01FA02FC634400FA02FCC2F1200205
:1003A000BCF1004F20FA02F243EB020008BF20F03C
:1003B0000100704702F1200201FA02FCC2F12002A2
:1003C00050EA4C0021FA02F243EB020008BF20EA97
:1003D000DC7070474FF0FF0C1CEAD0521EBF1CEAC5
:1003E000D15392EA0C0F93EA0C0F6FD01A4480EAB3
:1003F000010C400218BF5FEA41211ED04FF000639C
:1004000043EA501043EA5111A0FB01310CF00040C7
:10041000B1F5000F3EBF490041EAD3715B0040EAED
:10042000010062F17F02FD2A1DD8B3F1004F40EBBD
:10043000C25008BF20F00100704790F0000F0CF090
:10044000004C08BF49024CEA502040EA51207F3A54
:10045000C2BFD2F1FF0340EAC250704740F400002F
:100460004FF00003013A5DDC12F1190FDCBF00F020
:1004700000407047C2F10002410021FA02F1C2F1CE
:10048000200200FA02FC5FEA310040F1000053EA6A
:100490004C0308BF20EADC70704792F0000F00F0B8
:1004A000004C02BF400010F4000F013AF9D040EABE
:1004B0000C0093F0000F01F0004C02BF490011F452
:1004C000000F013BF9D041EA0C018FE70CEAD15350
:1004D00092EA0C0F18BF93EA0C0F0AD030F0004CD0
:1004E00018BF31F0004CD8D180EA010000F0004084
:1004F000704790F0000F17BF90F0004F084691F042
:10050000000F91F0004F14D092EA0C0F01D142027B
:100510000FD193EA0C0F03D14B0218BF084608D144
:1005200080EA010000F0004040F0FE4040F400008E
:10053000704740F0FE4040F4400070474FF0FF0C21
:100540001CEAD0521EBF1CEAD15392EA0C0F93EA68
:100550000C0F69D0A2EB030280EA010C49024FEABA
:10056000402037D04FF0805343EA111143EA101373
:100570000CF000408B4238BF5B0042F17D024FF42B
:10058000000C8B4224BF5B1A40EA0C00B3EB510F06
:1005900024BFA3EB510340EA5C00B3EB910F24BFEF
:1005A000A3EB910340EA9C00B3EBD10F24BFA3EB74
:1005B000D10340EADC001B0118BF5FEA1C1CE0D13C
:1005C000FD2A3FF650AF8B4240EBC25008BF20F0EF
:1005D000010070470CF0004C4CEA50207F32C2BF43
:1005E000D2F1FF0340EAC250704740F400004FF0E0
:1005F0000003013A37E792F0000F00F0004C02BF11
:10060000400010F4000F013AF9D040EA0C0093F0DA
:10061000000F01F0004C02BF490011F4000F013B34
:10062000F9D041EA0C0195E70CEAD15392EA0C0F9C
:1006300008D142027FF47DAF93EA0C0F7FF470AFD4
:10064000084676E793EA0C0F04D14B023FF44CAF17
:1006500008466EE730F0004C18BF31F0004CCAD1AC
:1006600030F000427FF45CAF31F000437FF43CAFE8
:100670005FE700BF4FF0FF3C06E000BF4FF0010C0A
:1006800002E000BF4FF0010C4DF804CD4FEA4002EC
:100690004FEA41037FEA226C18BF7FEA236C11D036
:1006A00001B052EA530C18BF90EA010F58BFB2EBE9
:1006B000030088BFC81738BF6FEAE17018BF40F069
:1006C000010070477FEA226C02D15FEA402C05D11D
:1006D0007FEA236CE4D15FEA412CE1D05DF8040BA2
:1006E000704700BF844608466146FFE70FB5FFF735
:1006F000C9FF002848BF10F1000F0FBD4DF808EDED
:10070000FFF7F4FF0CBF012000205DF808FB00BFDD
:100710004DF808EDFFF7EAFF34BF012000205DF837
:1007200008FB00BF4DF808EDFFF7E0FF94BF012084
:1007300000205DF808FB00BF4DF808EDFFF7D2FF81
:1007400094BF012000205DF808FB00BF4DF808EDC4
:10075000FFF7C8FF34BF012000205DF808FB00BF91
:100760004FEA4002B2F1FE4F0FD34FF09E03B3EBBE
:1007700012620DD94FEA002343F0004310F0004FFE
:1007800023FA02F018BF404270474FF00000704754
:1007900012F1610F01D1420205D110F0004008BFF3
:1007A0006FF0004070474FF000007047704700BF87
:1007B000FEE700BFFEE700BFFEE700BFFEE700BFA9
:1007C000704700BF704700BF704700BF704700BF51
:1007D00010B400204FF41F04394A3A4B116883B01B
:1007E00041F00101116051680B405360136823F020
:1007F000847323F480331360136823F4802313601D
:10080000536823F4FE0353609460009001901368D2
:1008100043F48033136003E0009BB3F5A06F09D06D
:10082000136803F400330193009B01330093019B91
:10083000002BF1D0224B1B6813F4003318BF0123A7
:100840000193019B012B06D04FF000621E4B9A6072
:1008500003B010BC70471D4A194B116841F01001DC
:100860001160116821F003011160116841F002016B
:1008700011605A685A605A685A605A6842F4806235
:100880005A605A6822F47C125A605A6842F4E8129C
:100890005A601A6842F080721A601A689201FCD598
:1008A0005968074A21F003015960596841F0020173
:1008B0005960536803F00C03082BFAD1C4E700BF5A
:1008C000001002400000FFF800ED00E000200240B0
:1008D00038B500F02FFA4FF4A06000F0BBFA4FF4E7
:1008E000E13000F061FA00F021F800F047F800F084
:1008F00047F901231C460B4A0B4DC2F89431C5F849
:10090000943101340220A4B200F032FAB4F5FA7F37
:10091000F7D1D5F894310024B3FA83F35B09C5F815
:100920009431EEE7008021420000234270B501219E
:1009300082B0482000F0F2FC202441F203030D4E67
:100940000D4D304601A9ADF80630ADF8044000F079
:10095000CDFA2146304600F05DFC284601A9ADF8ED
:10096000044000F0C3FA2146284600F053FC02B0D0
:1009700070BD00BF000C01400018014030B50121DE
:1009800089B0052000F0CAFC01210025084600F0CE
:10099000D1FC29462F4800F041FC29462E4800F0A2
:1009A0003DFC042241F6030369462C48ADF80020C3
:1009B000ADF8023000F09AFA182241F203036946BA
:1009C0002648ADF80020ADF8023000F08FFA08217B
:1009D000224800F01FFC472240F2E7334FF08040EE
:1009E00001A9CDE901238DF80C5000F0AFFC1C4BA0
:1009F0004FF0804004A90493CDF8165000F0FCFCA1
:100A000008214FF0804000F05DFD01214FF0804053
:100A100000F04AFD01214FF0804000F035FD012338
:100A2000104C10210D48237000F0F6FB24780E4D79
:100A300044B100214FF0804000F04EFD00232B8098
:100A400009B030BD21464FF0804000F045FD2C80BC
:100A5000EFE700BF00011800000318000008014084
:100A600060000100380000203A00002010B548B1B5
:100A700001230D4C10210D48237000F0CDFB24788C
:100A800054B110BD0346084C10210848237000F0F3
:100A9000C1FB2478002CF4D121464FF0804000F0B7
:100AA0001BFD034B1C8010BD3800002000080140D6
:100AB0003A00002038B52A4B1B78002B46D000287E
:100AC00044D0284C40F6B8338442B8BF04469C4218
:100AD000A8BF1C4600284FF00801234828DD00F07D
:100AE00099FB2146214A138801FB03F33B2B28D9AC
:100AF0001F49204AA1FB03135B09934228BF1346F9
:100B00001D4DB5FBF3F3591E89B2C3F34F054FF0EA
:100B1000804000F0DFFC29464FF0804000F0DCFC14
:100B200001214FF0804000F0BDFC144B1C8038BD0B
:100B300000F072FB0D4A6142138801FB03F33B2B6B
:100B4000D6D84AF2201544F23F21E0E700214FF0C9
:100B5000804000F0C1FC0022084B1A8038BD00BF65
:100B60003800002048F4FFFF000801400400002086
:100B70008988888820A1070040420F003A000020A1
:100B80000022014B1A7070476500002030B5837851
:100B900083B0013B032B15D8DFE803F0332A02169C
:100BA000EC46304B304A93E80300ADF80410009057
:100BB0000DF1060113885B06FCD51CF8013B8C4542
:100BC0009380F7D103B030BD4378012BFAD9047973
:100BD000201E18BF0120FFF749FF002CF2D120464C
:100BE000FFF768FF0122214BC3F8942103B030BD09
:100BF0000020FFF75FFF01221C4BC3F8942103B0D4
:100C000030BD4378022BDDD903794479642B1ED89B
:100C10001846FFF787FB16490546FFF7DBFB15492A
:100C2000FFF78CFCFFF79CFD00B2012C02D094B9B9
:100C3000404200B2FFF73EFF28460021FFF786FD45
:100C40000028CFD00022094BC3F89421BAE74FF413
:100C50009660084DE9E70020FFF72CFF022CC1D079
:100C6000EAE700BF981600080038014000802142E2
:100C7000000096440000C84210B5294C2378042B8C
:100C80000BD8DFE803F00D141D2D0300254A264B79
:100C9000127883F82300824235D00023237010BDE0
:100CA000AA28FCD10123204A1070237010BD2028EF
:100CB000F3D802231C491B4A48701070237010BDE2
:100CC0004FF0000C184B174A987059781378184455
:100CD000164B107083F800C091B10323237010BD30
:100CE00012490A78531CDBB20B700F490A4491F881
:100CF00001C00C49D0700A789C4510440870CED8C9
:100D00000423237010BD1846FFF740FF084AD2F8AD
:100D10009431B3FA83F35B09C2F89431BDE700BFA5
:100D2000650000203C0000204000002064000020FE
:100D3000008021426FF0040008B500F0CBF8084BAA
:100D4000084A1B680848A2FB0323C3F34753C3EBBD
:100D50004312064903EB8202D20003700A8008BDE9
:100D60000000002083DE1B43680000206600002096
:100D70004FF0E02200210B4B1B8800FB03F3536173
:100D80009161136943F001031361136903F00113C7
:100D9000012BFAD00021136923F001031361916143
:100DA000704700BF6600002070B5012186B005467F
:100DB00044F2040000F0B2FA4FF4007341F603026B
:100DC000184E69463046ADF80220ADF8003000F00C
:100DD0008DF804224FF48063694630468DF8032075
:100DE000ADF8003000F082F80F4B01A8019300F03D
:100DF0003BF800234FF440220C4C02A92046CDE9D9
:100E00000332ADF81430029500F068FB2046012251
:100E100040F2255100F0CCFB0121204600F0BAFB46
:100E200006B070BD000801402503030100380140F1
:100E300008B540F22551064800F0D8FB00B908BDBE
:100E4000034800F0CFFBBDE80840C0B2FFF714BF75
:100E500000380140034B40F0BF6040F40030D860E0
:100E6000704700BF00ED00E0C37813B3174A30B5F8
:100E7000D1684FF0010EC9430F23827890F801C06A
:100E80000078C1F3022100F01F040EFA04F4CB40F5
:100E9000C1F1040E13400CFA0EFC0D4D43EA0C0395
:100EA0001B012A18DBB2400982F8003345F82040C4
:100EB00030BD0121037806485A0903F01F03203290
:100EC00001FA03F340F82230704700BF00ED00E064
:100ED00000E100E04FF0E022136904280CBF43F06A
:100EE000040323F004031361704700BF00B591F8B9
:100EF00003C01CF0100F18BF8B780CF00F0E18BF3A
:100F00004EEA030E0B88DAB2002A36D0BCF1480F45
:100F1000026800F0B380BCF1280F00F03A81D907D5
:100F200044BF22F00F024EEA0202990744BF22F0AA
:100F3000F00242EA0E12590744BF22F4706242EAFC
:100F40000E22190744BF22F4704242EA0E32D9063B
:100F500044BF22F4702242EA0E42990644BF22F4B2
:100F6000700242EA0E52590644BF22F0706242EA11
:100F70000E62190600F10A810260FF2B4AD9BCF10A
:100F8000480F426848D1D90506D54FF4807122F048
:100F90000F024EEA02020161990506D54FF4007175
:100FA00022F0F00242EA0E120161590506D54FF413
:100FB000806122F4706242EA0E220161190506D5B1
:100FC0004FF4006122F4704242EA0E320161D9040A
:100FD00006D54FF4805122F4702242EA0E4201619C
:100FE000990406D54FF4005122F4700242EA0E52E1
:100FF0000161590406D54FF4804122F0706242EA43
:101000000E6201611B0404D54FF400436EF31F729E
:10101000036142605DF804FBBCF1280F6ED0D90576
:1010200044BF22F00F024EEA0202990544BF22F0AB
:10103000F00242EA0E12590544BF22F4706242EAFD
:101040000E22190544BF22F4704242EA0E32D9043E
:1010500044BF22F4702242EA0E42990444BF22F4B3
:10106000700242EA0E52590444BF22F0706242EA12
:101070000E621B04CDD56EF31F72CAE7D90705D5E2
:10108000012122F00F024EEA02020161990705D503
:10109000022122F0F00242EA0E120161590705D541
:1010A000042122F4706242EA0E220161190705D57B
:1010B000082122F4704242EA0E320161D90605D5B8
:1010C000102122F4702242EA0E420161990605D5F0
:1010D000202122F4700242EA0E520161590605D520
:1010E000402122F0706242EA0E62016119067FF52A
:1010F00043AF80216EF31F7201613DE7D90506D52C
:101100004FF4807122F00F024EEA0202416199050C
:1011100006D54FF4007122F0F00242EA0E1241614E
:10112000590506D54FF4806122F4706242EA0E221E
:101130004161190506D54FF4006122F4704242EA7C
:101140000E324161D90406D54FF4805122F4702249
:1011500042EA0E424161990406D54FF4005122F44F
:10116000700242EA0E524161590406D54FF48041A3
:1011700022F0706242EA0E6241611B047FF549AFC2
:101180004FF400436EF31F72436142E76EF31F7228
:10119000F2E6D90705D5012122F00F024EEA02023C
:1011A0004161990705D5022122F0F00242EA0E12B0
:1011B0004161590705D5042122F4706242EA0E22EA
:1011C0004161190705D5082122F4704242EA0E3226
:1011D0004161D90605D5102122F4702242EA0E425F
:1011E0004161990605D5202122F4700242EA0E528F
:1011F0004161590605D5402122F0706242EA0E6233
:10120000416119067FF5B8AE80216EF31F7241610E
:10121000B2E600BF016170474161704700281A4B78
:1012200000F44012B4BFDB695B68B2F5401F10B434
:101230001FFA80FC1FD0C20214D50322C0F303445E
:10124000A24023EA020343F0706321B1420D120170
:101250000CFA02F213430C4A002810BCB4BFD3614D
:1012600053607047420D12010CFA02F223EA0203A6
:1012700043F07063E9E7044C23F07063626822F086
:1012800070626260E1E700BF000001401E4A10B4D6
:10129000536803F00C03082B21D01C4A134602604C
:1012A000194A1B4C5168C1F30311615CCB40436088
:1012B0005168C1F30221615C23FA01F18160516838
:1012C000C1F3C221645C1349E340C360526810BC9F
:1012D000C2F381328A5CB3FBF2F303617047536857
:1012E0005168C3F38343C90303F1020307D552686E
:1012F000920304D4054A02FB03F30360D0E7064AD5
:1013000002FB03F30360CBE70010024000127A00F7
:101310000C0000200800002000093D00044A9369E9
:1013200011B118439061704723EA00009061704743
:1013300000100240044AD36911B11843D0617047CC
:1013400023EA0000D061704700100240274A03885A
:1013500090429BB212D002F5006290420ED0B0F1E2
:10136000804F0BD0A2F59832904207D002F58062F0
:10137000904203D002F58062904203D14A8823F064
:10138000700313431A4A904217D002F580629042CC
:1013900013D0CA8823F440739BB21343B1F804C03E
:1013A0000380124B0A889842A0F82CC002850CD109
:1013B0000B7A038601238382704703808B888385A1
:1013C0000B8803850123838270470A4B9842EFD034
:1013D00003F540639842EBD003F580639842E7D071
:1013E00003F580639842E3D0ECE700BF002C014096
:1013F0000010004000340140038C30B523F48073AA
:101400001B041B0C0384038CB1F808E0B0F804C083
:101410004D88828B23F400731B044EEA050E194C91
:101420001B0C22F0730243EA0E231204B1F800E011
:10143000120CA0421FFA8CFC9BB242EA0E020AD0A8
:1014400004F50064A04206D0C988A0F804C08283D5
:101450008187038430BD4FF6FF344D8923F4006348
:1014600043EA05231C40CD898B892CF4405C2B4337
:101470004CEA031C8B881FFA8CFC44EA03239BB2C2
:10148000E2E700BF002C0140038821B19BB243F08A
:1014900001030380704723F001031B041B0C03802E
:1014A000704700BF81827047038821B19BB243F02F
:1014B00080030380704723F080031B041B0C038010
:1014C000704700BF838B23F008031B041B0C0B43E6
:1014D00083837047818570478187704730B50446A4
:1014E0000D46238ACA889BB223F4405313438A894A
:1014F0002382A389898823F4B05323F00C031B04AF
:101500001B0C0B43298987B00B43698901A80B4346
:101510009BB2A381A38A9BB223F440731343A3829B
:10152000FFF7B4FEDDE90332184919488C4208BFC1
:101530001346A28903EB830312F4004F2A6803EBDE
:10154000830314BF52009200B3FBF2F36425A0FBA7
:101550000321490905FB11330A01A18909040AD4B1
:101560001B013233A0FB0313C3F3431313439BB29A
:10157000238107B030BDDB003233A0FB0313C3F37C
:10158000421313439BB2238107B030BD00380140A2
:101590001F85EB51838921B19BB243F400538381B2
:1015A000704723F400531B041B0C8381704700BF5A
:1015B000012301F01F0CC1F34211012903FA0CF3BE
:1015C0000DD002290CBF103014301AB10268134339
:1015D00003607047026822EA0303036070470C301F
:1015E000F3E700BF8088C0F3080070470123C1F310
:1015F000421201F01F0C012A03FA0CF313D0022A45
:101600000CBF028A828A92B21340028892B243B11E
:101610000123090A03FA01F10A4214BF1846002007
:10162000704718467047828992B21340EDE700BFB9
:101630000C4885460C480D490D4A002302E0D45859
:10164000C4500433C4188C42F9D30A4A0A4C00230C
:1016500001E013600432A242FBD3FFF7B9F8FFF7B1
:1016600037F9704700000120000000201C00002016
:10167000A81600081C0000206C000020FEE70000F7
:10168000F8B500BFF8BC08BC9E467047F8B500BF6F
:08169000F8BC08BC9E4670473F
:08169800AA02834F4B1F000062
:0416A00099010008A4
:0416A40071010008C8
:1016A80000A24A04400600000204060800000000E8
:0C16B800010203040102030406070809F4
:0400000508001631A8
:00000001FF
